01#BPA#2025120079300003976701                                                    00000000000000                                         D04.10
03249255520251222512570470579177583120251201001010301060096700007936184206F000000Z00000100000102             BPALARA EMANUELLE OLIVEIRA BASTOS2024070304    010                                  7706367807710                            QD 10     20   Loteamento Nova Flamboyant    63992217660                                                                                         
03249255520251222512570020847677412820251201001020301060096700205494620622M000000R07403400000102             BPAADAILTON DA COSTA FERREIRA    1991060404    010                                  77063406077T 32                          CJ 28     02   Jardim Taquari (Taquaralto)   63992188968                                                                                         
03249255520251222512570840525422196420251201001030301060118702102786062195F000000    03200000102             BPAPRISCILA DA COSTA DE ALMEIDA  1993012004    010                                  7706207608118 BLOCO D AP                 CONDOMINIO219  JARDIM AURENY III             63992447594                                                                                         
03249255520251222512570840525422196420251201001040301100039702102786062195F000000    03200000102             BPAPRISCILA DA COSTA DE ALMEIDA  1993012004    010                                  7706207608118 BLOCO D AP                 CONDOMINIO219  JARDIM AURENY III             63992447594                                                                                         
03249255520251222512570840525422196420251201001050301060061703406272095010F000000B37 03200000102             BPAPRISCILA DA COSTA DE ALMEIDA  1993012004    010                                  7706207608118 BLOCO D AP                 CONDOMINIO219  JARDIM AURENY III             63992447594                                                                                         
03249255520251222512570070898803857420251201001060301060096700205494620622F000000Z00002800000102             BPAKELEN CARDOSO DA SILVA        1997112504    010                                  7706002408120                            DQ 27     22   Jardim Aureny IV              63999422150                                                                                         
03249255520251222512570040713337515020251201001070301060096700205494620622M000000M79602500000102             BPAJHON WESLEY SILVA VALE        2000032304    010                                  77600000081                                                                           63999596418                                                                                         
03249255520251222512570360008176483220251201001080301060096703402378066800M000000Z00002500000102             BPAALEXANDRE BARROS BARBOSA      2000111903    010                                  770600420814                             QD 15     01   JARDIM AURENY IV              63984095544                                                                                         
03249255520251222512589800634303934320251201001090301060096700007936184206M000000Z00000100000102             BPABARUQUE SOUZA REIS MESQUITA   2023121504    010                                  7701531400408 Lote                       207 SUL QI35   Plano Diretor Sul             63991178103                                                                                         
03249255520251222512570670756824261420251201001100301060096700007936184206M000000Z00000900000102             BPAJOAQUIM GABRIEL NUNES DA SILVA2015121304    010                                  77064608008COPACABANA                    QD 13     08   CONJUNTO MARIA ROSA (TAQUARALT63991255096                                                                                         
03249255520251222512570480700753314020251201001110301060118702102786062195F000000    02700000102             BPALUZIENE SILVA CONCEICAO       1997121304    010                                  77062052008E                             QUADRA 122S/N  JARDIM AURENY III             6392184519                                                                                          
03249255520251222512570480700753314020251201001120301100039702102786062195F000000    02700000102             BPALUZIENE SILVA CONCEICAO       1997121304    010                                  77062052008E                             QUADRA 122S/N  JARDIM AURENY III             6392184519                                                                                          
032492555202512225125               20251201001130301060096704003872399060M000000Z03 00000000102             BPAJOAO FELIPE LIMA CAVALCANTE   2025021301    010                                  00000000000                                                                           63992883931                                                                                         
03249255520251222512570670756824261420251201001140301060096700007936184206M000000Z00000900000102             BPAJOAQUIM GABRIEL NUNES DA SILVA2015121304    010                                  77064608008COPACABANA                    QD 13     08   CONJUNTO MARIA ROSA (TAQUARALT63991255096                                                                                         
03249255520251222512570760622697199820251201001150301060118702102786062195F000000    06300000102             BPAMARIA LUZIA SOARES BATISTA ROC1962050604    010                                  77063120077(FLAMBOYANT) QUADRA 03 CASA 43NS 08     43   JARDIM TAQUARI (TAQUARALTO)   63984468196                                                                                         
03249255520251222512570760622697199820251201001160301100039702102786062195F000000    06300000102             BPAMARIA LUZIA SOARES BATISTA ROC1962050604    010                                  77063120077(FLAMBOYANT) QUADRA 03 CASA 43NS 08     43   JARDIM TAQUARI (TAQUARALTO)   63984468196                                                                                         
03249255520251222512570470579177583120251201001170301060096700007936184206F000000Z00000100000102             BPALARA EMANUELLE OLIVEIRA BASTOS2024070304    010                                  7706367807710                            QD 10     20   Loteamento Nova Flamboyant    63992217660                                                                                         
03249255520251222512570480700753314020251201001180301060096700007936184206F000000Z00002700000102             BPALUZIENE SILVA CONCEICAO       1997121304    010                                  77062052008E                             QUADRA 122S/N  JARDIM AURENY III             6392184519                                                                                          
03249255520251222512589800075355300920251201001190301060118702102786062195M000000    01500000102             BPAPEDRO HENRIQUE ALVES COSTA    2010012901    010                                  77063480077T 32 Rua                      CONJUNTO 207   Jardim Taquari (Taquaralto)   6384429479                                                                                          
03249255520251222512589800075355300920251201001200301100039702102786062195M000000    01500000102             BPAPEDRO HENRIQUE ALVES COSTA    2010012901    010                                  77063480077T 32 Rua                      CONJUNTO 207   Jardim Taquari (Taquaralto)   6384429479                                                                                          
03249255520251222512570760622697199820251201002010301060061703406272095010F000000R51 06300000102             BPAMARIA LUZIA SOARES BATISTA ROC1962050604    010                                  77063120077(FLAMBOYANT) QUADRA 03 CASA 43NS 08     43   JARDIM TAQUARI (TAQUARALTO)   63984468196                                                                                         
03249255520251222512570050335074565220251201002020301060118702102786062195F000000    02200000102             BPADAVINNY CARVALHO DE SOUZA     2003030904    010                                  77062222081Santa Rosa                    QUADRA 35 19   Jardim Aeroporto              62982454396                                                                                         
03249255520251222512570050335074565220251201002030301100039702102786062195F000000    02200000102             BPADAVINNY CARVALHO DE SOUZA     2003030904    010                                  77062222081Santa Rosa                    QUADRA 35 19   Jardim Aeroporto              62982454396                                                                                         
03249255520251222512570850433091347520251201002040301060096704003872399060M000000M24305700000102             BPALAZARO NUNES DA SILVA         1968071804    010                                  77064032081T 20                          CHACARA 2814   Setor Santa Fé (Taquaralto)   63985133204                                                                                         
03249255520251222512570560540092601020251201002050301060118702102786062195F000000    04100000102             BPAMARIA DE LURDES DE SOUZA FERRE1984062802    010                                  77064026081Raimundo Galvão da Cruz       QUADRA 30 18   Setor Santa Fé (Taquaralto)   63992128359                                                                                         
03249255520251222512570560540092601020251201002060301100039702102786062195F000000    04100000102             BPAMARIA DE LURDES DE SOUZA FERRE1984062802    010                                  77064026081Raimundo Galvão da Cruz       QUADRA 30 18   Setor Santa Fé (Taquaralto)   63992128359                                                                                         
03249255520251222350570280015839656520251201002070301060118708606012225185F000000    02200000102             BPAPÂMELA LYSLEY SOARES DE LIMA  2003091204    010                                  7706205408132                            QD 61 LT 2S/N  JARDIM AURENY III             63992944270                                                                                         
03249255520251222512589800075355300920251201002080301060061703406272095010M000000W54 01500000102             BPAPEDRO HENRIQUE ALVES COSTA    2010012901    010                                  77063480077T 32 Rua                      CONJUNTO 207   Jardim Taquari (Taquaralto)   6384429479                                                                                          
03249255520251222512570680919731163020251201002090301060118702102786062195F000000    00100000102             BPAMAYA VITORIA SOARES DOS ANJOS 2024022104    010                                  7706125607732                            AL 23     23   LOTEAMENTO JARDIM VITÓRIA 2   63992580410                                                                                         
03249255520251222512570560540092601020251201002100301060061703406272095010F000000R52004100000102             BPAMARIA DE LURDES DE SOUZA FERRE1984062802    010                                  77064026081Raimundo Galvão da Cruz       QUADRA 30 18   Setor Santa Fé (Taquaralto)   63992128359                                                                                         
03249255520251222512570090599163539720251201002110301060096700001496522901F000000Z00100500000102             BPALAURA DINIZ GONCALVES         2020030804    010                                  7706003208114                            CHACARA 2512   IRMA DULCE                    63991087042                                                                                         
03249255520251222512570230813296151820251201002120301060096700001496522901M000000Z00101100000102             BPARICARDO MELO COSTA            2014072904    010                                  77062131008D                                       102  Loteamento Lago Sul (Taquaralt63991286168                                                                                         
03249255520251222512570080045483678020251201002130301060118702102786062195M000000    08900000102             BPAMANOEL FRANCISCO DE ARAUJO    1935120902    010                                  77670000081                                                                           6335311148                                                                                          
03249255520251222512570080045483678020251201002140301100039702102786062195M000000    08900000102             BPAMANOEL FRANCISCO DE ARAUJO    1935120902    010                                  77670000081                                                                           6335311148                                                                                          
03249255520251222512570680919731163020251201002150301060061703406272095010F000000J06900100000102             BPAMAYA VITORIA SOARES DOS ANJOS 2024022104    010                                  7706125607732                            AL 23     23   LOTEAMENTO JARDIM VITÓRIA 2   63992580410                                                                                         
03249255520251222512570080045483678020251201002160301060061703406272095010M000000Z00008900000102             BPAMANOEL FRANCISCO DE ARAUJO    1935120902    010                                  77670000081                                                                           6335311148                                                                                          
03249255520251222512570360008176483220251201002170301060118702102786062195M000000    02500000102             BPAALEXANDRE BARROS BARBOSA      2000111903    010                                  770600420814                             QD 15     01   JARDIM AURENY IV              63984095544                                                                                         
03249255520251222512570260772150674920251201002180301060118702102786062195F000000    02300000102             BPAANA ELYZA ARAUJO LACERDA      2002112704    010                                  770240400771104 SUL ALAMEDA 12           LOTE 53 CA53   PLANO DIRETOR SUL             63984384191                                                                                         
03249255520251222512570260772150674920251201002190301100039702102786062195F000000    02300000102             BPAANA ELYZA ARAUJO LACERDA      2002112704    010                                  770240400771104 SUL ALAMEDA 12           LOTE 53 CA53   PLANO DIRETOR SUL             63984384191                                                                                         
03249255520251222512570050335074565220251201002200301060061703406272095010F000000Z00002200000102             BPADAVINNY CARVALHO DE SOUZA     2003030904    010                                  77062222081Santa Rosa                    QUADRA 35 19   Jardim Aeroporto              62982454396                                                                                         
03249255520251222512570820666870744920251201003010301060118702102786062195F000000    01100000102             BPAFERNANDA CARDOSO MENDES       2014050102    010                                  77063522077T 42 Rua Ns 02                RUA NS 02 02   Jardim Taquari (Taquaralto)   63984860369                                                                                         
03249255520251222512570360008176483220251201003020301060061703406272095010M000000Z00002500000102             BPAALEXANDRE BARROS BARBOSA      2000111903    010                                  770600420814                             QD 15     01   JARDIM AURENY IV              63984095544                                                                                         
03249255520251222512570640830089089020251201003030301060118702102786062195F000000    02300000102             BPAMICKELY PEREIRA DE SOUSA      2002110804    010                                  77060032081CHACARA 67                              03   IRMA DULCE                    63992005773                                                                                         
03249255520251222512570640830089089020251201003040301100039702102786062195F000000    02300000102             BPAMICKELY PEREIRA DE SOUSA      2002110804    010                                  77060032081CHACARA 67                              03   IRMA DULCE                    63992005773                                                                                         
03249255520251222512570170022882287020251201003050301060118702102786062195F000000    01700000102             BPABEATRIZ BISPO ARAUJO          2008110804    010                                  77024690081RESIDENCIAL LEBLON            BLOCO 2   109  ARSE 131                      63984707873                                                                                         
03249255520251222512570170022882287020251201003060301100039702102786062195F000000    01700000102             BPABEATRIZ BISPO ARAUJO          2008110804    010                                  77024690081RESIDENCIAL LEBLON            BLOCO 2   109  ARSE 131                      63984707873                                                                                         
03249255520251222512570260772150674920251201003070301060061703406272095010F000000Z00002300000102             BPAANA ELYZA ARAUJO LACERDA      2002112704    010                                  770240400771104 SUL ALAMEDA 12           LOTE 53 CA53   PLANO DIRETOR SUL             63984384191                                                                                         
03249255520251222512589800510594440420251201003080301060118702102786062195F000000    02100000102             BPAIGOR JEESSE DOS SANTOS        2003121904    010                                  77001430004307 NORTE ALAMEDA 22                    108  PLANO DIRETOR NORTE           63992255809                                                                                         
03249255520251222512589800510594440420251201003090301100039702102786062195F000000    02100000102             BPAIGOR JEESSE DOS SANTOS        2003121904    010                                  77001430004307 NORTE ALAMEDA 22                    108  PLANO DIRETOR NORTE           63992255809                                                                                         
03249255520251222512570010190386111320251201003100301060118702102786062195M000000    04300000102             BPAJAIDE SILVA OLIVEIRA          1982111603    010                                  77270000081                              QD             TAQUARUÇÚ Compl.: [QD]        63921450556                                                                                         
03249255520251222512570010190386111320251201003110301100039702102786062195M000000    04300000102             BPAJAIDE SILVA OLIVEIRA          1982111603    010                                  77270000081                              QD             TAQUARUÇÚ Compl.: [QD]        63921450556                                                                                         
03249255520251222512570820666870744920251201003120301060061703406272095010F000000R05 01100000102             BPAFERNANDA CARDOSO MENDES       2014050102    010                                  77063522077T 42 Rua Ns 02                RUA NS 02 02   Jardim Taquari (Taquaralto)   63984860369                                                                                         
03249255520251222512570670756824261420251201003130301060096700001496522901M000000Z00100900000102             BPAJOAQUIM GABRIEL NUNES DA SILVA2015121304    010                                  77064608008COPACABANA                    QD 13     08   CONJUNTO MARIA ROSA (TAQUARALT63991255096                                                                                         
03249255520251222512570050335074565220251201003140301060118702102786062195F000000    02200000102             BPADAVINNY CARVALHO DE SOUZA     2003030904    010                                  77062222081Santa Rosa                    QUADRA 35 19   Jardim Aeroporto              62982454396                                                                                         
03249255520251222350570560540092601020251201003150301060118708606012225185F000000    04100000102             BPAMARIA DE LURDES DE SOUZA FERRE1984062802    010                                  77064026081Raimundo Galvão da Cruz       QUADRA 30 18   Setor Santa Fé (Taquaralto)   63992128359                                                                                         
03249255520251222512589800636062496820251201003160301060118702102786062195M000000    00100000102             BPALEVI DOS SANTOS PEREIRA       2024041004    010                                  7706204208142                            QUADRA 12505   JARDIM AURENY III             63992550893                                                                                         
03249255520251222512570360008176483220251201003170301060096704003872399060M000000Z91602500000102             BPAALEXANDRE BARROS BARBOSA      2000111903    010                                  770600420814                             QD 15     01   JARDIM AURENY IV              63984095544                                                                                         
03249255520251222512570010190386111320251201003180301060061703406272095010M000000R10 04300000102             BPAJAIDE SILVA OLIVEIRA          1982111603    010                                  77270000081                              QD             TAQUARUÇÚ Compl.: [QD]        63921450556                                                                                         
03249255520251222512589800634303934320251201003190301060096700001496522901M000000Z00100100000102             BPABARUQUE SOUZA REIS MESQUITA   2023121504    010                                  7701531400408 Lote                       207 SUL QI35   Plano Diretor Sul             63991178103                                                                                         
03249255520251222512570000278371500120251201003200301060118702102786062195M000000    03300000102             BPASEBASTIAO ALVES JUNIOR        1992050204    010                                  00000000000                                                                           63984055414                                                                                         
03249255520251222512570000278371500120251201004010301100039702102786062195M000000    03300000102             BPASEBASTIAO ALVES JUNIOR        1992050204    010                                  00000000000                                                                           63984055414                                                                                         
03249255520251222512570640830089089020251201004020301060061703406272095010F000000Z00002300000102             BPAMICKELY PEREIRA DE SOUSA      2002110804    010                                  77060032081CHACARA 67                              03   IRMA DULCE                    63992005773                                                                                         
03249255520251222512589800636062496820251201004030301060061703406272095010M000000J06900100000102             BPALEVI DOS SANTOS PEREIRA       2024041004    010                                  7706204208142                            QUADRA 12505   JARDIM AURENY III             63992550893                                                                                         
03249255520251222350570020847677412820251201004040301060118708606012225185M000000    03400000102             BPAADAILTON DA COSTA FERREIRA    1991060404    010                                  77063406077T 32                          CJ 28     02   Jardim Taquari (Taquaralto)   63992188968                                                                                         
03249255520251222512570560540092601020251201004050301060096700001496522901F000000Z00004100000102             BPAMARIA DE LURDES DE SOUZA FERRE1984062802    010                                  77064026081Raimundo Galvão da Cruz       QUADRA 30 18   Setor Santa Fé (Taquaralto)   63992128359                                                                                         
03249255520251222512570860400173848620251201004060301060118702102786062195M000000    02300000102             BPATHEO SANTOS MAIA              2002032904    010                                  7706203008139                            QD 176 LOT03   JARDIM AURENY III             63992414343                                                                                         
03249255520251222512570860400173848620251201004070301100039702102786062195M000000    02300000102             BPATHEO SANTOS MAIA              2002032904    010                                  7706203008139                            QD 176 LOT03   JARDIM AURENY III             63992414343                                                                                         
03249255520251222512589800634303934320251201004080301060096700001496522901M000000Z00000100000102             BPABARUQUE SOUZA REIS MESQUITA   2023121504    010                                  7701531400408 Lote                       207 SUL QI35   Plano Diretor Sul             63991178103                                                                                         
03249255520251222512570170022882287020251201004090301060061703406272095010F000000Z00001700000102             BPABEATRIZ BISPO ARAUJO          2008110804    010                                  77024690081RESIDENCIAL LEBLON            BLOCO 2   109  ARSE 131                      63984707873                                                                                         
03249255520251222512570500484246215420251201004100301060096700001496522901M000000Z00006200000102             BPAHAROLDO ROSA PINTO            1963051304    010                                  77066082008MORRO BRANCO QD124                      04   SETOR MORADA DO SOL (TAQUARALT63981296620                                                                                         
03249255520251222512570080045483678020251201004110301060096704003872399060M000000N41908900000102             BPAMANOEL FRANCISCO DE ARAUJO    1935120902    010                                  77670000081                                                                           6335311148                                                                                          
03249255520251222512570410017190527620251201004120301060118702102786062195F000000    03400000102             BPAELAINE TEODORO DE SOUSA       1991050803    010                                  77064740081P 8                           QD 26     24   Setor Sol Nascente (Taquaralto63992269760                                                                                         
03249255520251222512570410017190527620251201004130301100039702102786062195F000000    03400000102             BPAELAINE TEODORO DE SOUSA       1991050803    010                                  77064740081P 8                           QD 26     24   Setor Sol Nascente (Taquaralto63992269760                                                                                         
03249255520251222512589800510594440420251201004140301060061703406272095010F000000R52002100000102             BPAIGOR JEESSE DOS SANTOS        2003121904    010                                  77001430004307 NORTE ALAMEDA 22                    108  PLANO DIRETOR NORTE           63992255809                                                                                         
03249255520251222512570280567692776720251201004150301060096700001496522901M000000Z00001900000102             BPAOZEIAS LOPES DIAS             2006030904    010                                  77060769081Araraquara                    QD 08 A   08   Jardim Paulista (Taquaralto)  63992813074                                                                                         
03249255520251222512570000278371500120251201004160301060061703406272095010M000000R10 03300000102             BPASEBASTIAO ALVES JUNIOR        1992050204    010                                  00000000000                                                                           63984055414                                                                                         
03249255520251225160570050533413325920251201004170301010048706804771384327F000000    04100000102             BPAMARIA DA CONSOLACAO SOUSA SANT1984081504    010                                  7724989948126                            VISTA ALEG03   SITIO ECOLOGICO               63991388983                                                                                         
03249255520251225160570100386187489220251201004180301010048706804771384327F000000    03200000102             BPADANIELLA MELO                 1993032704    010                                  77066156081MS 14                         QD 07 A   22   SETOR MORADA DO SOL 3 (TAQUARA63992520646                                                                                         
03249255520251225160570620406863246620251201004190301010048706804771384327M000000    04000000102             BPACREUSA TRAJANO ROCHA          1985031001    010                                  77062226081DAS GAIVOTAS                  QD 30     10   JARDIM AEROPORTO              63992079354                                                                                         
03249255520251225160570050314669745920251201004200301010048706804771384327F000000    02100000102             BPAADENILDE DA CONCEIÇÃO SILVA GO2004111404    010                                  77270000081RN 10 Qi 31                             41   Lago Sul                      6384052403                                                                                          
03249255520251225160570780260419741820251201005010301010048706804771384327F000000    06800000102             BPALUZIA DE BRITO CARNEIRO       1957101403    010                                  7706651807713                            AL 15     18   Recanto das Araras I          63984551384                                                                                         
03249255520251225160570630179466517020251201005020301010048706804771384327M000000    06000000102             BPAJOSE ALVES ROSA               1965070104    010                                  770602400817 QD 49 LT 06                           S/N  JARDIM AURENY II              63984527066                                                                                         
032492555202512251605               20251201005030301010048706804771384327M000000    02100000102             BPARONILSON NUNES BATISTA        2004012104    010                                  00000000000                                                                           63991112525                                                                                         
03249255520251222512570860400173848620251201005040301060061703406272095010M000000Z00002300000102             BPATHEO SANTOS MAIA              2002032904    010                                  7706203008139                            QD 176 LOT03   JARDIM AURENY III             63992414343                                                                                         
03249255520251225160570620554891966220251201005050301010048706804771384327M000000    04800000102             BPADELMIVAN CARDOSO SANTANA      1977020404    010                                  77062160008Joao Pires Querido            RESID JAVA61   Jardim Janaina (Taquaralto)   62991077001                                                                                         
03249255520251225160570890279526181420251201005060301010048706804771384327M000000    04600000102             BPAJUNIO UCHOA MENDES            1979071804    010                                  7706018408112                            QD 15 LT 115   Jardim Aureny II              63984735738                                                                                         
03249255520251225160570890973332001520251201005070301010048706804771384327M000000    02200000102             BPATHAUAN FRASÃO PEREIRA         2003030104    010                                  770603260818                             QUADRA 02 20B  Jardim Santa Bárbara          63992367272                                                                                         
03249255520251225160570640369574628920251201005080301010048706804771384327M000000    03900000102             BPAJOSE ARMANDO CORREIA          1986091103    010                                  7706003208114                            CHAC 19   22   JARDIM AURENY IV              63985174737                                                                                         
032492555202512251605               20251201005090301010048706804771384327M000000    07500000102             BPAPEDRO FERREIRA DOS SANTOS     1950060204    010                                  00000000000                                                                           63923328084                                                                                         
03249255520251222512570020847677412820251201005100301060096700001496522901M000000Z00003400000102             BPAADAILTON DA COSTA FERREIRA    1991060404    010                                  77063406077T 32                          CJ 28     02   Jardim Taquari (Taquaralto)   63992188968                                                                                         
03249255520251222512570500484246215420251201005110301060096700001496522901M000000Z00006200000102             BPAHAROLDO ROSA PINTO            1963051304    010                                  77066082008MORRO BRANCO QD124                      04   SETOR MORADA DO SOL (TAQUARALT63981296620                                                                                         
03249255520251222512570410017190527620251201005120301060061703406272095010F000000R11 03400000102             BPAELAINE TEODORO DE SOUSA       1991050803    010                                  77064740081P 8                           QD 26     24   Setor Sol Nascente (Taquaralto63992269760                                                                                         
03249255520251225160570850433091347520251201005130301010048706804771384327M000000    05700000102             BPALAZARO NUNES DA SILVA         1968071804    010                                  77064032081T 20                          CHACARA 2814   Setor Santa Fé (Taquaralto)   63985133204                                                                                         
03249255520251222512570040533826885020251201005140301060096700001496522901M000000Z00003900000102             BPAJOAO BATISTA DA SILVA         1986031204    010                                  7706206208124 A                          QUADRA 27 06   JARDIM AURENY III             63992017288                                                                                         
03249255520251222512570500484246215420251201005150301060096700001496522901M000000Z00006200000102             BPAHAROLDO ROSA PINTO            1963051304    010                                  77066082008MORRO BRANCO QD124                      04   SETOR MORADA DO SOL (TAQUARALT63981296620                                                                                         
03249255520251222512570480700753314020251201005160301060096700001496522901F000000Z00002700000102             BPALUZIENE SILVA CONCEICAO       1997121304    010                                  77062052008E                             QUADRA 122S/N  JARDIM AURENY III             6392184519                                                                                          
03249255520251222512570280015839656520251201005170301060096700001496522901F000000Z00002200000102             BPAPÂMELA LYSLEY SOARES DE LIMA  2003091204    010                                  7706205408132                            QD 61 LT 2S/N  JARDIM AURENY III             63992944270                                                                                         
03249255520251222512570900481369431220251201005180301060118702102786062195M000000    04100000102             BPAJOSE ANTONIO RODRIGUES DO NASC1984100404    010                                  77060020008F                             QUADRA 60 04   JARDIM AURENY IV              63991247930                                                                                         
03249255520251222512570900481369431220251201005190301100039702102786062195M000000    04100000102             BPAJOSE ANTONIO RODRIGUES DO NASC1984100404    010                                  77060020008F                             QUADRA 60 04   JARDIM AURENY IV              63991247930                                                                                         
03249255520251222512570900481369431220251201005200301060061703406272095010M000000M54504100000102             BPAJOSE ANTONIO RODRIGUES DO NASC1984100404    010                                  77060020008F                             QUADRA 60 04   JARDIM AURENY IV              63991247930                                                                                         
03249255520251222350570000322767050420251201006010301060118708402732148861M000000    02700000102             BPAJOSIVAN PEREIRA DA SILVA      1998070803    010                                  7706020608122 QD 39 LT 16                          S/N  JARDIM AURENY II              63900000000                                                                                         
03249255520251222350570000322767050420251201006020301100039708402732148861M000000    02700000102             BPAJOSIVAN PEREIRA DA SILVA      1998070803    010                                  7706020608122 QD 39 LT 16                          S/N  JARDIM AURENY II              63900000000                                                                                         
03249255520251222350570620554891966220251201006030301060118708402732148861M000000    04800000102             BPADELMIVAN CARDOSO SANTANA      1977020404    010                                  77062160008Joao Pires Querido            RESID JAVA61   Jardim Janaina (Taquaralto)   62991077001                                                                                         
03249255520251222350570620554891966220251201006040301100039708402732148861M000000    04800000102             BPADELMIVAN CARDOSO SANTANA      1977020404    010                                  77062160008Joao Pires Querido            RESID JAVA61   Jardim Janaina (Taquaralto)   62991077001                                                                                         
03249255520251222512570000322767050420251201006050301060096700007936184206M000000Z00002700000102             BPAJOSIVAN PEREIRA DA SILVA      1998070803    010                                  7706020608122 QD 39 LT 16                          S/N  JARDIM AURENY II              63900000000                                                                                         
03249255520251222512570620554891966220251201006060301060096700007936184206M000000Z00004800000102             BPADELMIVAN CARDOSO SANTANA      1977020404    010                                  77062160008Joao Pires Querido            RESID JAVA61   Jardim Janaina (Taquaralto)   62991077001                                                                                         
03249255520251222350570410017190527620251201006070301060118708402732148861F000000    03400000102             BPAELAINE TEODORO DE SOUSA       1991050803    010                                  77064740081P 8                           QD 26     24   Setor Sol Nascente (Taquaralto63992269760                                                                                         
03249255520251222512570410017190527620251201006080301060096700007936184206F000000Z00003400000102             BPAELAINE TEODORO DE SOUSA       1991050803    010                                  77064740081P 8                           QD 26     24   Setor Sol Nascente (Taquaralto63992269760                                                                                         
03249255520251222512570090599163539720251201006090301060096700007936184206F000000Z00000500000102             BPALAURA DINIZ GONCALVES         2020030804    010                                  7706003208114                            CHACARA 2512   IRMA DULCE                    63991087042                                                                                         
03249255520251222512570500846181295120251201006100301060118706200543818162F000000    02800000102             BPALETICIA GONCALVES DE SOUZA    1997061404    010                                  7706205008134                            QD195 LT09S/N  Jardim Aureny III             63992106814                                                                                         
03249255520251222512570500846181295120251201006110301100039706200543818162F000000    02800000102             BPALETICIA GONCALVES DE SOUZA    1997061404    010                                  7706205008134                            QD195 LT09S/N  Jardim Aureny III             63992106814                                                                                         
03249255520251222512570000971567040120251201006120301060118706200543818162M000000    05700000102             BPAALDISON WISEMAN BARROS DE LYRA1968110104    010                                  77022052077606 SUL ALAMEDA MABE                    01   PLANO DIRETOR SUL             63999893201                                                                                         
03249255520251222512570000971567040120251201006130301100039706200543818162M000000    05700000102             BPAALDISON WISEMAN BARROS DE LYRA1968110104    010                                  77022052077606 SUL ALAMEDA MABE                    01   PLANO DIRETOR SUL             63999893201                                                                                         
03249255520251222512570340920843981520251201006140301060118706200543818162M000000    03200000102             BPADIONES TAVARES DE ARAUJO      1993080403    010                                  7706030008104                            QUADRA 21 13A  JARDIM SANTA BÁRBARA          63927212416                                                                                         
03249255520251222512570340920843981520251201006150301100039706200543818162M000000    03200000102             BPADIONES TAVARES DE ARAUJO      1993080403    010                                  7706030008104                            QUADRA 21 13A  JARDIM SANTA BÁRBARA          63927212416                                                                                         
03249255520251222512570230813296151820251201006160301060096700007936184206M000000Z00001100000102             BPARICARDO MELO COSTA            2014072904    010                                  77062131008D                                       102  Loteamento Lago Sul (Taquaralt63991286168                                                                                         
03249255520251222512570000971567040120251201006170301060096700205494620622M000000R04205700000102             BPAALDISON WISEMAN BARROS DE LYRA1968110104    010                                  77022052077606 SUL ALAMEDA MABE                    01   PLANO DIRETOR SUL             63999893201                                                                                         
03249255520251222512589800636455667320251201006180301060118706200543818162F000000    00100000102             BPAAYLLA FERREIRA DA SILVA       2024052004    010                                  7706002108113 QUADRA C3 LT 36            QUADRA C3 36   JARDIM AURENY IV              63992658442                                                                                         
03249255520251222512589800636455667320251201006190301060096700205494620622F000000R11 00100000102             BPAAYLLA FERREIRA DA SILVA       2024052004    010                                  7706002108113 QUADRA C3 LT 36            QUADRA C3 36   JARDIM AURENY IV              63992658442                                                                                         
03249255520251222512589800636455667320251201006200301060096700205494620622F000000Z02700100000102             BPAAYLLA FERREIRA DA SILVA       2024052004    010                                  7706002108113 QUADRA C3 LT 36            QUADRA C3 36   JARDIM AURENY IV              63992658442                                                                                         
03249255520251222512570620554891966220251201007010301060096700007936184206M000000Z00004800000102             BPADELMIVAN CARDOSO SANTANA      1977020404    010                                  77062160008Joao Pires Querido            RESID JAVA61   Jardim Janaina (Taquaralto)   62991077001                                                                                         
03249255520251222512570340920843981520251201007020301060096700205494620622M000000R11 03200000102             BPADIONES TAVARES DE ARAUJO      1993080403    010                                  7706030008104                            QUADRA 21 13A  JARDIM SANTA BÁRBARA          63927212416                                                                                         
03249255520251222512570010290986881120251201007030301060118706200543818162M000000    04900000102             BPAFABIO VICENTE DA SILVA        1976050402    010                                  7706207208122                            QD 71 LT 1S/N  Jardim Aureny III             63999642161                                                                                         
03249255520251222512570010290986881120251201007040301100039706200543818162M000000    04900000102             BPAFABIO VICENTE DA SILVA        1976050402    010                                  7706207208122                            QD 71 LT 1S/N  Jardim Aureny III             63999642161                                                                                         
03249255520251222512570010290986881120251201007050301060096700205494620622M000000J18004900000102             BPAFABIO VICENTE DA SILVA        1976050402    010                                  7706207208122                            QD 71 LT 1S/N  Jardim Aureny III             63999642161                                                                                         
03249255520251222512570500887636085420251201007060301060118706200543818162F000000    03700000102             BPAJACILENE CONCEIÇÃO SILVA      1988040704    010                                  77060098081LONDRINA                      QUADRA NW 01   JARDIM AURENY I               63984839555                                                                                         
03249255520251222512570500887636085420251201007070301100039706200543818162F000000    03700000102             BPAJACILENE CONCEIÇÃO SILVA      1988040704    010                                  77060098081LONDRINA                      QUADRA NW 01   JARDIM AURENY I               63984839555                                                                                         
03249255520251222512570620103898456620251201007080301060096700007936184206M000000E87108200000102             BPAJOAQUIM JOSE DIAS             1943082404    010                                  77064580081SF 46 QD 02 LT 05                       05   SANTA FE                      63992945929                                                                                         
03249255520251222512570050971698775720251201007090301060118706200543818162F000000    04100000102             BPAROSINEIDE SILVA SOUSA         1984091804    010                                  7706046008112                            QUADRA 17 34   JARDIM SANTA HELENA           63991004861                                                                                         
03249255520251222512570050971698775720251201007100301100039706200543818162F000000    04100000102             BPAROSINEIDE SILVA SOUSA         1984091804    010                                  7706046008112                            QUADRA 17 34   JARDIM SANTA HELENA           63991004861                                                                                         
03249255520251222512570000322767050420251201007110301060096700007936184206M000000Z00002700000102             BPAJOSIVAN PEREIRA DA SILVA      1998070803    010                                  7706020608122 QD 39 LT 16                          S/N  JARDIM AURENY II              63900000000                                                                                         
03249255520251222512570560941143351020251201007120301060118706200543818162M000000    07000000102             BPAMANOEL MESSIAS GONZAGA DA SILV1955082804    010                                  7706656407726                            ALAMEDA 2442   RECANTO DAS ARARAS II         63992860202                                                                                         
03249255520251222512570560941143351020251201007130301100039706200543818162M000000    07000000102             BPAMANOEL MESSIAS GONZAGA DA SILV1955082804    010                                  7706656407726                            ALAMEDA 2442   RECANTO DAS ARARAS II         63992860202                                                                                         
03249255520251222512589800586030188120251201007140301060118706200543818162F000000    01300000102             BPACLARA CARVALHO SILVA          2012030204    010                                  770600440812 QUADRA 33                             10   JARDIM AURENY IV              63984418837                                                                                         
03249255520251222350570640830089089020251201007150301060118708402732148861F000000    02300000102             BPAMICKELY PEREIRA DE SOUSA      2002110804    010                                  77060032081CHACARA 67                              03   IRMA DULCE                    63992005773                                                                                         
03249255520251222512570560941143351020251201007160301060096700205494620622M000000R10 07000000102             BPAMANOEL MESSIAS GONZAGA DA SILV1955082804    010                                  7706656407726                            ALAMEDA 2442   RECANTO DAS ARARAS II         63992860202                                                                                         
03249255520251222512570300886460517620251201007170301060118706200543818162M000000    04900000102             BPAAMARILSO COELHO DA SILVA      1976101002    010                                  7706019608113 QD 32                                23   JARDIM AURENY II              63992906327                                                                                         
03249255520251222512570300886460517620251201007180301100039706200543818162M000000    04900000102             BPAAMARILSO COELHO DA SILVA      1976101002    010                                  7706019608113 QD 32                                23   JARDIM AURENY II              63992906327                                                                                         
03249255520251222350570230813296151820251201007190301060118702407044686122M000000    01100000102             BPARICARDO MELO COSTA            2014072904    010                                  77062131008D                                       102  Loteamento Lago Sul (Taquaralt63991286168                                                                                         
03249255520251222512570500887636085420251201007200301060096700205494620622F000000S90003700000102             BPAJACILENE CONCEIÇÃO SILVA      1988040704    010                                  77060098081LONDRINA                      QUADRA NW 01   JARDIM AURENY I               63984839555                                                                                         
03249255520251225160570000971567040120251201008010301010048706804771384327M000000    05700000102             BPAALDISON WISEMAN BARROS DE LYRA1968110104    010                                  77022052077606 SUL ALAMEDA MABE                    01   PLANO DIRETOR SUL             63999893201                                                                                         
03249255520251225160570000322767050420251201008020301010048706804771384327M000000    02700000102             BPAJOSIVAN PEREIRA DA SILVA      1998070803    010                                  7706020608122 QD 39 LT 16                          S/N  JARDIM AURENY II              63900000000                                                                                         
03249255520251222512570340304466730020251201008030301060118706200543818162F000000    06200000102             BPAFRANCISCA MIRANDA LIMA        1963030904    010                                  77062048081RUA 36                        QD 139 CAS21   JARDIM AURENY III             63981098282                                                                                         
03249255520251222512570340304466730020251201008040301100039706200543818162F000000    06200000102             BPAFRANCISCA MIRANDA LIMA        1963030904    010                                  77062048081RUA 36                        QD 139 CAS21   JARDIM AURENY III             63981098282                                                                                         
03249255520251222512570640830089089020251201008050301060096700007936184206F000000Z00002300000102             BPAMICKELY PEREIRA DE SOUSA      2002110804    010                                  77060032081CHACARA 67                              03   IRMA DULCE                    63992005773                                                                                         
03249255520251222512570050971698775720251201008060301060096700205494620622F000000A09 04100000102             BPAROSINEIDE SILVA SOUSA         1984091804    010                                  7706046008112                            QUADRA 17 34   JARDIM SANTA HELENA           63991004861                                                                                         
03249255520251222512570800884096902020251201008070301060096700007936184206F000000Z00004700000102             BPAANA FARIA DE MELO             1978071101    010                                  770603220817                             QUADRA 03 27   JARDIM SANTA BÁRBARA          63992712025                                                                                         
03249255520251222512570060891043366220251201008080301060118706200543818162F000000    03400000102             BPASABRINA TAVARES DE ABREU      1991010902    010                                  77059046081Olga Cavalcante               QD 15 LT 009   Loteamento Bertaville         63991140572                                                                                         
03249255520251222512570060891043366220251201008090301100039706200543818162F000000    03400000102             BPASABRINA TAVARES DE ABREU      1991010902    010                                  77059046081Olga Cavalcante               QD 15 LT 009   Loteamento Bertaville         63991140572                                                                                         
03249255520251222512570230910366351320251201008100301060118706200543818162M000000    02000000102             BPACARLOS HENRIQUE DE CASTRO MOUR2004123002    010                                  77062212081J20                           QUADRA 38 26   Jardim Janaína (Taquaralto)   63999574215                                                                                         
03249255520251222512570230910366351320251201008110301100039706200543818162M000000    02000000102             BPACARLOS HENRIQUE DE CASTRO MOUR2004123002    010                                  77062212081J20                           QUADRA 38 26   Jardim Janaína (Taquaralto)   63999574215                                                                                         
03249255520251222512570050971698775720251201008120301060096700205494620622F000000Z02704100000102             BPAROSINEIDE SILVA SOUSA         1984091804    010                                  7706046008112                            QUADRA 17 34   JARDIM SANTA HELENA           63991004861                                                                                         
03249255520251222512570860257456638020251201008130301060096700205494620622F000000Z00006700000102             BPAANA FERREIRA DOS SANTOS BENEVI1958013003    010                                  770600420814 QD 10                                 12   JARDIM AURENY IV              63984272758                                                                                         
03249255520251222512570340822817021720251201008140301060118706200543818162M000000    01500000102             BPADANYLLO VIEIRA MELO           2010073004    010                                  77060688081Crisântemos                   QD 03     16   Setor Sônia Regina (Taquaralto63992433457                                                                                         
03249255520251222512570340822817021720251201008150301100039706200543818162M000000    01500000102             BPADANYLLO VIEIRA MELO           2010073004    010                                  77060688081Crisântemos                   QD 03     16   Setor Sônia Regina (Taquaralto63992433457                                                                                         
03249255520251222512570060696890746020251201008160301060096703402378066800M000000R56804300000102             BPAMARCOS ARAUJO DE LIMA         1982071301    010                                  77640000023                                                                                                                                                                               
03249255520251222512570000971567040120251201008170301060096700205494620622M000000Z00005700000102             BPAALDISON WISEMAN BARROS DE LYRA1968110104    010                                  77022052077606 SUL ALAMEDA MABE                    01   PLANO DIRETOR SUL             63999893201                                                                                         
03249255520251222512570650532308979120251201008180301060118706200543818162F000000    05600000102             BPAFLEUDINEIA LEOCADIA DELMONDES 1969072504    010                                  77060032081CHACARA 30                              11   IRMA DULCE                    63992904742                                                                                         
03249255520251222512570210878697319320251201008190301060061702809672075565M000000Z00002700000102             BPACARLOS ALESSANDRO ALVES DA SIL1998090104    010                                  77090014081JOSEFA ALVES DA CUNHA         PA SITIO C014  BURITIRANA                    63999497024                                                                                         
03249255520251222350570640013077178320251201008200301060118704003859311163M000000    03400000102             BPALENILSON CAPISTANO SALES      1991082904    010                                  7706207608118                            CONDOMINIO106  JARDIM AURENY III             6384378068                                                                                          
03249255520251222350570640013077178320251201009010301100039704003859311163M000000    03400000102             BPALENILSON CAPISTANO SALES      1991082904    010                                  7706207608118                            CONDOMINIO106  JARDIM AURENY III             6384378068                                                                                          
03249255520251222350570850433091347520251201009020301060118704603120987729M000000    05700000102             BPALAZARO NUNES DA SILVA         1968071804    010                                  77064032081T 20                          CHACARA 2814   Setor Santa Fé (Taquaralto)   63985133204                                                                                         
03249255520251222350570850433091347520251201009030301100039704603120987729M000000    05700000102             BPALAZARO NUNES DA SILVA         1968071804    010                                  77064032081T 20                          CHACARA 2814   Setor Santa Fé (Taquaralto)   63985133204                                                                                         
03249255520251222350570080690902738520251201009040301060118704003859311163F000000    01800000102             BPAJULLYA MOURA SÁ VALE          2007111401    010                                  77060108081Rondônia                      QSW08     05   Jardim Aureny I               6384088207                                                                                          
03249255520251222350570080690902738520251201009050301100039704003859311163F000000    01800000102             BPAJULLYA MOURA SÁ VALE          2007111401    010                                  77060108081Rondônia                      QSW08     05   Jardim Aureny I               6384088207                                                                                          
03249255520251222512570060891043366220251201009060301060096700505783290459F000000R10 03400000102             BPASABRINA TAVARES DE ABREU      1991010902    010                                  77059046081Olga Cavalcante               QD 15 LT 009   Loteamento Bertaville         63991140572                                                                                         
03249255520251222350570620103898456620251201009070301060118704603120987729M000000    08200000102             BPAJOAQUIM JOSE DIAS             1943082404    010                                  77064580081SF 46 QD 02 LT 05                       05   SANTA FE                      63992945929                                                                                         
03249255520251222350570620103898456620251201009080301100039704603120987729M000000    08200000102             BPAJOAQUIM JOSE DIAS             1943082404    010                                  77064580081SF 46 QD 02 LT 05                       05   SANTA FE                      63992945929                                                                                         
03249255520251222512570090790135709220251201009090301060118702102786062195F000000    00700000102             BPALARYSSA BARBOSA DUARTE        2018011004    010                                  7706124807736                            AL29      23   Loteamento Jardim Vitória 2   63984898313                                                                                         
03249255520251222350570120705300271420251201009100301060118704003859311163F000000    08200000102             BPAANTONIA MARIA DA SILVA        1943110504    010                                  7706030208110                            QUADRA 15 26B  Jardim Santa Bárbara          63999229285                                                                                         
03249255520251222350570120705300271420251201009110301100039704003859311163F000000    08200000102             BPAANTONIA MARIA DA SILVA        1943110504    010                                  7706030208110                            QUADRA 15 26B  Jardim Santa Bárbara          63999229285                                                                                         
03249255520251222350570630179466517020251201009120301060118704603120987729M000000    06000000102             BPAJOSE ALVES ROSA               1965070104    010                                  770602400817 QD 49 LT 06                           S/N  JARDIM AURENY II              63984527066                                                                                         
03249255520251222350570630179466517020251201009130301100039704603120987729M000000    06000000102             BPAJOSE ALVES ROSA               1965070104    010                                  770602400817 QD 49 LT 06                           S/N  JARDIM AURENY II              63984527066                                                                                         
03249255520251222350570500887636085420251201009140301060118704601766725130F000000    03700000102             BPAJACILENE CONCEIÇÃO SILVA      1988040704    010                                  77060098081LONDRINA                      QUADRA NW 01   JARDIM AURENY I               63984839555                                                                                         
03249255520251222350570500887636085420251201009150301100039704601766725130F000000    03700000102             BPAJACILENE CONCEIÇÃO SILVA      1988040704    010                                  77060098081LONDRINA                      QUADRA NW 01   JARDIM AURENY I               63984839555                                                                                         
03249255520251222350570640830089089020251201009160301060118704601766725130F000000    02300000102             BPAMICKELY PEREIRA DE SOUSA      2002110804    010                                  77060032081CHACARA 67                              03   IRMA DULCE                    63992005773                                                                                         
03249255520251222350570640830089089020251201009170301100039704601766725130F000000    02300000102             BPAMICKELY PEREIRA DE SOUSA      2002110804    010                                  77060032081CHACARA 67                              03   IRMA DULCE                    63992005773                                                                                         
03249255520251222512570340304466730020251201009180301060096704604666308328F000000R11 06200000102             BPAFRANCISCA MIRANDA LIMA        1963030904    010                                  77062048081RUA 36                        QD 139 CAS21   JARDIM AURENY III             63981098282                                                                                         
03249255520251222512570420329759648720251201009190301060118702102786062195F000000    04500000102             BPAMARIA FRANCISCA PEREIRA DA SIL1980100804    010                                  77063506077T 32 RUA                      CONJUNTO 107   JARDIM TAQUARI (TAQUARALTO)   6399547459                                                                                          
03249255520251222512570420329759648720251201009200301100039702102786062195F000000    04500000102             BPAMARIA FRANCISCA PEREIRA DA SIL1980100804    010                                  77063506077T 32 RUA                      CONJUNTO 107   JARDIM TAQUARI (TAQUARALTO)   6399547459                                                                                          
03249255520251222350570890279526181420251201010010301060118704603120987729M000000    04600000102             BPAJUNIO UCHOA MENDES            1979071804    010                                  7706018408112                            QD 15 LT 115   Jardim Aureny II              63984735738                                                                                         
03249255520251222350570890279526181420251201010020301100039704603120987729M000000    04600000102             BPAJUNIO UCHOA MENDES            1979071804    010                                  7706018408112                            QD 15 LT 115   Jardim Aureny II              63984735738                                                                                         
03249255520251222512589800586030188120251201010030301060096700500379887851F000000M79601300000102             BPACLARA CARVALHO SILVA          2012030204    010                                  770600440812 QUADRA 33                             10   JARDIM AURENY IV              63984418837                                                                                         
03249255520251222512570300886460517620251201010040301060096700007936184206M000000Z00004900000102             BPAAMARILSO COELHO DA SILVA      1976101002    010                                  7706019608113 QD 32                                23   JARDIM AURENY II              63992906327                                                                                         
03249255520251222350570620350480436120251201010050301060118701204062479916M000000    06800000102             BPANATALINO PIRES GONÇALVES      1956122502    010                                  7706201608129 QD 90 LT                   CASA      16   JARDIM AURENY III (TAQUARALTO)63992690240                                                                                         
03249255520251222350570620350480436120251201010060301100039701204062479916M000000    06800000102             BPANATALINO PIRES GONÇALVES      1956122502    010                                  7706201608129 QD 90 LT                   CASA      16   JARDIM AURENY III (TAQUARALTO)63992690240                                                                                         
03249255520251222350570050314669745920251201010070301060118704601766725130F000000    02100000102             BPAADENILDE DA CONCEIÇÃO SILVA GO2004111404    010                                  77270000081RN 10 Qi 31                             41   Lago Sul                      6384052403                                                                                          
03249255520251222350570050314669745920251201010080301100039704601766725130F000000    02100000102             BPAADENILDE DA CONCEIÇÃO SILVA GO2004111404    010                                  77270000081RN 10 Qi 31                             41   Lago Sul                      6384052403                                                                                          
03249255520251222512570080690902738520251201010090301060096700505783290459F000000R10 01800000102             BPAJULLYA MOURA SÁ VALE          2007111401    010                                  77060108081Rondônia                      QSW08     05   Jardim Aureny I               6384088207                                                                                          
03249255520251222350570010290986881120251201010100301060118704603120987729M000000    04900000102             BPAFABIO VICENTE DA SILVA        1976050402    010                                  7706207208122                            QD 71 LT 1S/N  Jardim Aureny III             63999642161                                                                                         
03249255520251222350570010290986881120251201010110301100039704603120987729M000000    04900000102             BPAFABIO VICENTE DA SILVA        1976050402    010                                  7706207208122                            QD 71 LT 1S/N  Jardim Aureny III             63999642161                                                                                         
03249255520251222512570340720156121420251201010120301060118702102786062195F000000    01800000102             BPAERIKA PRISCILLA PEREIRA MOURA 2007031104    010                                  77064642081RUA 42                        QUADRA 22 14   LOTEAMENTO JARDIM LAILA       63992240039                                                                                         
03249255520251222512570340720156121420251201010130301100039702102786062195F000000    01800000102             BPAERIKA PRISCILLA PEREIRA MOURA 2007031104    010                                  77064642081RUA 42                        QUADRA 22 14   LOTEAMENTO JARDIM LAILA       63992240039                                                                                         
03249255520251222512570230813296151820251201010140301060061704209286862186M000000R06001100000102             BPARICARDO MELO COSTA            2014072904    010                                  77062131008D                                       102  Loteamento Lago Sul (Taquaralt63991286168                                                                                         
03249255520251222512570230910366351320251201010150301060096700500379887851M000000M79602000000102             BPACARLOS HENRIQUE DE CASTRO MOUR2004123002    010                                  77062212081J20                           QUADRA 38 26   Jardim Janaína (Taquaralto)   63999574215                                                                                         
03249255520251222350570620554891966220251201010160301060118704603120987729M000000    04800000102             BPADELMIVAN CARDOSO SANTANA      1977020404    010                                  77062160008Joao Pires Querido            RESID JAVA61   Jardim Janaina (Taquaralto)   62991077001                                                                                         
03249255520251222350570620554891966220251201010170214010015704603120987729M000000    04800000102             BPADELMIVAN CARDOSO SANTANA      1977020404    010                                  77062160008Joao Pires Querido            RESID JAVA61   Jardim Janaina (Taquaralto)   62991077001                                                                                         
03249255520251222350570620554891966220251201010180301100039704603120987729M000000    04800000102             BPADELMIVAN CARDOSO SANTANA      1977020404    010                                  77062160008Joao Pires Querido            RESID JAVA61   Jardim Janaina (Taquaralto)   62991077001                                                                                         
03249255520251222512570340822817021720251201010190301060061703406272095010M000000M54501500000102             BPADANYLLO VIEIRA MELO           2010073004    010                                  77060688081Crisântemos                   QD 03     16   Setor Sônia Regina (Taquaralto63992433457                                                                                         
03249255520251222350570620406863246620251201010200301060118704601766725130M000000    04000000102             BPACREUSA TRAJANO ROCHA          1985031001    010                                  77062226081DAS GAIVOTAS                  QD 30     10   JARDIM AEROPORTO              63992079354                                                                                         
03249255520251222350570620406863246620251201011010301100039704601766725130M000000    04000000102             BPACREUSA TRAJANO ROCHA          1985031001    010                                  77062226081DAS GAIVOTAS                  QD 30     10   JARDIM AEROPORTO              63992079354                                                                                         
03249255520251222512570420329759648720251201011020301060096700007936184206F000000Z00004500000102             BPAMARIA FRANCISCA PEREIRA DA SIL1980100804    010                                  77063506077T 32 RUA                      CONJUNTO 107   JARDIM TAQUARI (TAQUARALTO)   6399547459                                                                                          
03249255520251222350570780260419741820251201011030301060118704601766725130F000000    06800000102             BPALUZIA DE BRITO CARNEIRO       1957101403    010                                  7706651807713                            AL 15     18   Recanto das Araras I          63984551384                                                                                         
03249255520251222350570780260419741820251201011040301100039704601766725130F000000    06800000102             BPALUZIA DE BRITO CARNEIRO       1957101403    010                                  7706651807713                            AL 15     18   Recanto das Araras I          63984551384                                                                                         
03249255520251222350589800499843088420251201011050301060118704003859311163M000000    02500000102             BPAMAGNO FERREIRA MORAES         2000090604    010                                  77064624081AMETISTA                      QD 74 A   12   CONJUNTO MARIA ROSA (TAQUARALT63992974328                                                                                         
03249255520251222350589800499843088420251201011060301100039704003859311163M000000    02500000102             BPAMAGNO FERREIRA MORAES         2000090604    010                                  77064624081AMETISTA                      QD 74 A   12   CONJUNTO MARIA ROSA (TAQUARALT63992974328                                                                                         
03249255520251222512570050271402155720251201011070301060118702102786062195M000000    05700000102             BPAJOAO QUERINO DA SILVA         1967122101    010                                  77063208077T 22 Rua Ns 06                CONJUNTO 216   Jardim Taquari (Taquaralto)   63992952187                                                                                         
03249255520251222512570050271402155720251201011080301100039702102786062195M000000    05700000102             BPAJOAO QUERINO DA SILVA         1967122101    010                                  77063208077T 22 Rua Ns 06                CONJUNTO 216   Jardim Taquari (Taquaralto)   63992952187                                                                                         
03249255520251222350570700188870763320251201011090301060118701204062479916M000000    02700000102             BPAHIGOR LORRAN LOPES LEAL       1998011304    010                                  7706034008113                            QD10A     39   JARDIM SANTA BÁRBARA          63981453338                                                                                         
03249255520251222350570700188870763320251201011100301100039701204062479916M000000    02700000102             BPAHIGOR LORRAN LOPES LEAL       1998011304    010                                  7706034008113                            QD10A     39   JARDIM SANTA BÁRBARA          63981453338                                                                                         
03249255520251222350570050533413325920251201011110301060118704601766725130F000000    04100000102             BPAMARIA DA CONSOLACAO SOUSA SANT1984081504    010                                  7724989948126                            VISTA ALEG03   SITIO ECOLOGICO               63991388983                                                                                         
03249255520251222350570050533413325920251201011120301100039704601766725130F000000    04100000102             BPAMARIA DA CONSOLACAO SOUSA SANT1984081504    010                                  7724989948126                            VISTA ALEG03   SITIO ECOLOGICO               63991388983                                                                                         
03249255520251222350570890973332001520251201011130301060118704603120987729M000000    02200000102             BPATHAUAN FRASÃO PEREIRA         2003030104    010                                  770603260818                             QUADRA 02 20B  Jardim Santa Bárbara          63992367272                                                                                         
03249255520251222350570890973332001520251201011140301100039704603120987729M000000    02200000102             BPATHAUAN FRASÃO PEREIRA         2003030104    010                                  770603260818                             QUADRA 02 20B  Jardim Santa Bárbara          63992367272                                                                                         
03249255520251222512570640013077178320251201011150301060096700500379887851M000000K29703400000102             BPALENILSON CAPISTANO SALES      1991082904    010                                  7706207608118                            CONDOMINIO106  JARDIM AURENY III             6384378068                                                                                          
03249255520251222350570100386187489220251201011160301060118704601766725130F000000    03200000102             BPADANIELLA MELO                 1993032704    010                                  77066156081MS 14                         QD 07 A   22   SETOR MORADA DO SOL 3 (TAQUARA63992520646                                                                                         
03249255520251222350570100386187489220251201011170301100039704601766725130F000000    03200000102             BPADANIELLA MELO                 1993032704    010                                  77066156081MS 14                         QD 07 A   22   SETOR MORADA DO SOL 3 (TAQUARA63992520646                                                                                         
03249255520251222350570640369574628920251201011180301060118704603120987729M000000    03900000102             BPAJOSE ARMANDO CORREIA          1986091103    010                                  7706003208114                            CHAC 19   22   JARDIM AURENY IV              63985174737                                                                                         
03249255520251222350570640369574628920251201011190301100039704603120987729M000000    03900000102             BPAJOSE ARMANDO CORREIA          1986091103    010                                  7706003208114                            CHAC 19   22   JARDIM AURENY IV              63985174737                                                                                         
03249255520251222350570800884096902020251201011200301060118704601766725130F000000    04700000102             BPAANA FARIA DE MELO             1978071101    010                                  770603220817                             QUADRA 03 27   JARDIM SANTA BÁRBARA          63992712025                                                                                         
03249255520251222350570800884096902020251201012010301100039704601766725130F000000    04700000102             BPAANA FARIA DE MELO             1978071101    010                                  770603220817                             QUADRA 03 27   JARDIM SANTA BÁRBARA          63992712025                                                                                         
03249255520251222512570120705300271420251201012020301060061702809672075565F000000R06008200000102             BPAANTONIA MARIA DA SILVA        1943110504    010                                  7706030208110                            QUADRA 15 26B  Jardim Santa Bárbara          63999229285                                                                                         
03249255520251222350570000833858680820251201012030301060118701204062479916M000000    03400000102             BPAWESLEY MOREIRA CUNHA          1991051403    010                                  76100000081                                                                           63984370836                                                                                         
03249255520251222350570000833858680820251201012040301100039701204062479916M000000    03400000102             BPAWESLEY MOREIRA CUNHA          1991051403    010                                  76100000081                                                                           63984370836                                                                                         
03249255520251222350570410017190527620251201012050301060118704601766725130F000000    03400000102             BPAELAINE TEODORO DE SOUSA       1991050803    010                                  77064740081P 8                           QD 26     24   Setor Sol Nascente (Taquaralto63992269760                                                                                         
03249255520251222350570410017190527620251201012060301100039704601766725130F000000    03400000102             BPAELAINE TEODORO DE SOUSA       1991050803    010                                  77064740081P 8                           QD 26     24   Setor Sol Nascente (Taquaralto63992269760                                                                                         
03249255520251222350570510245558287020251201012070301060118704003859311163M000000    06600000102             BPAANTONIO LUIS DE SOUZA ARAUJO  1959080901    010                                  77063206077T 22 RUA NS 4                 CONJUNTO 315   JARDIM TAQUARI (TAQUARALTO)   63992816112                                                                                         
03249255520251222350570510245558287020251201012080301100039704003859311163M000000    06600000102             BPAANTONIO LUIS DE SOUZA ARAUJO  1959080901    010                                  77063206077T 22 RUA NS 4                 CONJUNTO 315   JARDIM TAQUARI (TAQUARALTO)   63992816112                                                                                         
032492555202512223505               20251201012090301060118704603120987729M000000    07500000102             BPAPEDRO FERREIRA DOS SANTOS     1950060204    010                                  00000000000                                                                           63923328084                                                                                         
032492555202512223505               20251201012100301100039704603120987729M000000    07500000102             BPAPEDRO FERREIRA DOS SANTOS     1950060204    010                                  00000000000                                                                           63923328084                                                                                         
032492555202512225125               20251201012110301060118702102786062195M000000    02700000102             BPAWILIAM BORGES DE ALMEIDA      1998043004    010                                  00000000000                                                                           63985412112                                                                                         
032492555202512223505               20251201012120301060118704603120987729M000000    02100000102             BPARONILSON NUNES BATISTA        2004012104    010                                  00000000000                                                                           63991112525                                                                                         
032492555202512223505               20251201012130301100039704603120987729M000000    02100000102             BPARONILSON NUNES BATISTA        2004012104    010                                  00000000000                                                                           63991112525                                                                                         
03249255520251222512570050271402155720251201012140301060096700505783290459M000000C06905700000102             BPAJOAO QUERINO DA SILVA         1967122101    010                                  77063208077T 22 Rua Ns 06                CONJUNTO 216   Jardim Taquari (Taquaralto)   63992952187                                                                                         
03249255520251222350570400386109886220251201012150301060118704003859311163M000000    00900000102             BPACARLOS EDUARDO MORAIS VIDAL   2016041804    010                                  770636740778                             RUA NS14  30   LOTEAMENTO NOVA FLAMBOYANT    6392483258                                                                                          
03249255520251222350570000322767050420251201012160301060118704603120987729M000000    02700000102             BPAJOSIVAN PEREIRA DA SILVA      1998070803    010                                  7706020608122 QD 39 LT 16                          S/N  JARDIM AURENY II              63900000000                                                                                         
03249255520251222350570000322767050420251201012170301100039704603120987729M000000    02700000102             BPAJOSIVAN PEREIRA DA SILVA      1998070803    010                                  7706020608122 QD 39 LT 16                          S/N  JARDIM AURENY II              63900000000                                                                                         
03249255520251222350570880077951681020251201012180301060118701204062479916M000000    04300000102             BPAJANSSEN ROBERTO RODRIGUES DE O1982031701    010                                  77061262077Alamda 28                               15   Loteamento Jardim Vitória 2   6384886803                                                                                          
03249255520251222350570880077951681020251201012190301100039701204062479916M000000    04300000102             BPAJANSSEN ROBERTO RODRIGUES DE O1982031701    010                                  77061262077Alamda 28                               15   Loteamento Jardim Vitória 2   6384886803                                                                                          
03249255520251222512570090790135709220251201012200301060096700500379887851F000000H10300700000102             BPALARYSSA BARBOSA DUARTE        2018011004    010                                  7706124807736                            AL29      23   Loteamento Jardim Vitória 2   63984898313                                                                                         
03249255520251222512570700188870763320251201013010301060096700007936184206M000000Z00002700000102             BPAHIGOR LORRAN LOPES LEAL       1998011304    010                                  7706034008113                            QD10A     39   JARDIM SANTA BÁRBARA          63981453338                                                                                         
03249255520251222350570000971567040120251201013020301060118704603120987729M000000    05700000102             BPAALDISON WISEMAN BARROS DE LYRA1968110104    010                                  77022052077606 SUL ALAMEDA MABE                    01   PLANO DIRETOR SUL             63999893201                                                                                         
03249255520251222350570000971567040120251201013030214010015704603120987729M000000    05700000102             BPAALDISON WISEMAN BARROS DE LYRA1968110104    010                                  77022052077606 SUL ALAMEDA MABE                    01   PLANO DIRETOR SUL             63999893201                                                                                         
03249255520251222350570000971567040120251201013040301100039704603120987729M000000    05700000102             BPAALDISON WISEMAN BARROS DE LYRA1968110104    010                                  77022052077606 SUL ALAMEDA MABE                    01   PLANO DIRETOR SUL             63999893201                                                                                         
03249255520251222512570760020056149520251201013050301060118702102786062195F000000    04300000102             BPAEVA LUCIA PORFIRO DA SILVA    1982102303    010                                  7706045508111                            QUADRA 17 41   JARDIM SANTA HELENA           63984092682                                                                                         
03249255520251222512570760020056149520251201013060301100039702102786062195F000000    04300000102             BPAEVA LUCIA PORFIRO DA SILVA    1982102303    010                                  7706045508111                            QUADRA 17 41   JARDIM SANTA HELENA           63984092682                                                                                         
03249255520251222350570470874218003220251201013070301060118701204062479916M000000    02400000102             BPAMARCOS EDUARDO ALVES FERREIRA 2001100904    010                                  7724989948132                            BELO HORIZS/N  Sitio Ecologico               63984001648                                                                                         
03249255520251222350570470874218003220251201013080301100039701204062479916M000000    02400000102             BPAMARCOS EDUARDO ALVES FERREIRA 2001100904    010                                  7724989948132                            BELO HORIZS/N  Sitio Ecologico               63984001648                                                                                         
03249255520251222350570320064781139920251201013090301060118704003859311163F000000    03700000102             BPAVAGNA FERREIRA DE ARAUJO      1988011902    010                                  77064748081Oliveira                      QD 33     03   Setor Sol Nascente (Taquaralto63999536731                                                                                         
03249255520251222350570320064781139920251201013100301100039704003859311163F000000    03700000102             BPAVAGNA FERREIRA DE ARAUJO      1988011902    010                                  77064748081Oliveira                      QD 33     03   Setor Sol Nascente (Taquaralto63999536731                                                                                         
03249255520251222350570560941143351020251201013110301060118704603120987729M000000    07000000102             BPAMANOEL MESSIAS GONZAGA DA SILV1955082804    010                                  7706656407726                            ALAMEDA 2442   RECANTO DAS ARARAS II         63992860202                                                                                         
03249255520251222350570560941143351020251201013120301100039704603120987729M000000    07000000102             BPAMANOEL MESSIAS GONZAGA DA SILV1955082804    010                                  7706656407726                            ALAMEDA 2442   RECANTO DAS ARARAS II         63992860202                                                                                         
03249255520251222512570620455520056120251201013130301060118702102786062195F000000    03400000102             BPAANA PAULA PEREIRA DA SILVA    1991022404    010                                  77060160081RIO DE JANEIRO                QUADRA SE 20C1 JARDIM AURENY I               63992668275                                                                                         
03249255520251222512570620455520056120251201013140301100039702102786062195F000000    03400000102             BPAANA PAULA PEREIRA DA SILVA    1991022404    010                                  77060160081RIO DE JANEIRO                QUADRA SE 20C1 JARDIM AURENY I               63992668275                                                                                         
03249255520251222350570920427305963720251201013150301060118701204062479916M000000    03300000102             BPAEUGLESIO MENEZES SOUSA        1991122604    010                                  77060174081ALAGOAS                       QUADRA NE 04   JARDIM AURENY I               63357181846                                                                                         
03249255520251222350570920427305963720251201013160301100039701204062479916M000000    03300000102             BPAEUGLESIO MENEZES SOUSA        1991122604    010                                  77060174081ALAGOAS                       QUADRA NE 04   JARDIM AURENY I               63357181846                                                                                         
03249255520251222350570100182783229320251201013170301060118701204062479916M000000    04600000102             BPANOILTON SANTOS RODRIGUES      1979112704    010                                  77060334008CONTORNO                      QD 23     23   JARDIM SANTA BÁRBARA          63992798410                                                                                         
03249255520251222350570100182783229320251201013180301100039701204062479916M000000    04600000102             BPANOILTON SANTOS RODRIGUES      1979112704    010                                  77060334008CONTORNO                      QD 23     23   JARDIM SANTA BÁRBARA          63992798410                                                                                         
03249255520251222512570620350480436120251201013190301060096700500379887851M000000M54506800000102             BPANATALINO PIRES GONÇALVES      1956122502    010                                  7706201608129 QD 90 LT                   CASA      16   JARDIM AURENY III (TAQUARALTO)63992690240                                                                                         
03249255520251222512570030396392193720251201013200301060118702102786062195F000000    05600000102             BPAMARY RUTH DO NASCIMENTO SANTOS1968121203    010                                  77066076081IPE                           QD 29     20   SETOR MORADA DO SOL (TAQUARALT6384004385                                                                                          
03249255520251222512570030396392193720251201014010301100039702102786062195F000000    05600000102             BPAMARY RUTH DO NASCIMENTO SANTOS1968121203    010                                  77066076081IPE                           QD 29     20   SETOR MORADA DO SOL (TAQUARALT6384004385                                                                                          
03249255520251222512570500483113775320251201014020301060118702102786062195M000000    03600000102             BPAWESLEY PEREIRA DE SOUZA       1989080602    010                                  77060172081Rio Grande do Sul Qse 06                05   Jardim Aureny I               63992617323                                                                                         
