01#BPA#2025120081070004067967                                                    00000000000000                                         D04.10
03275528920251222350570420424161168620251201001010301060118182102268060004M000000    02200000102             BPAKELLYSON ALVES DOS SANTOS     2003061504    010                                  77603000081                                                                           61331524256                                                                                         
03275528920251222350570420424161168620251201001020301100039182102268060004M000000    02200000102             BPAKELLYSON ALVES DOS SANTOS     2003061504    010                                  77603000081                                                                           61331524256                                                                                         
032755289202512225125               20251201001030301060118704004854161962F000000    02400000102             BPALARA BEATRIZ MARTINS PIMENTA D2001042904    010                                  00000000000                                                                           63992622505                                                                                         
032755289202512225125               20251201001040301100039704004854161962F000000    02400000102             BPALARA BEATRIZ MARTINS PIMENTA D2001042904    010                                  00000000000                                                                           63992622505                                                                                         
03275528920251222350570690613508953120251201001050301060118700007731587805M000000    04700000102             BPAEVEILSON DOS SANTOS VIEGAS AND1978053004    010                                  77001002081RUA 21                        CASA 02   01   LAGO NORTE                    61331524256                                                                                         
03275528920251222512570980501470219920251201001060301060061700800904362989F000000M79603500000102             BPALUANA PEREIRA DE OLIVEIRA     1990010904    010                                  78670000004ALAMEDA 14                    ARNO 71 QI06   PLANO DIRETOR NORTE           63923074146                                                                                         
03275528920251222512570460166382542620251201001070301060096707505245542290F000000Z00002500000102             BPAROSELI DIAS DA PAIXAO         2000051604    010                                  77001568004ARNO 43, ALAMEDA 03 LT CASA 03QI 05 ACS 22   PLANO DIRETOR NORTE           63992387191                                                                                         
032755289202512223505               20251201001080301060118182102268060004F000000    00100000102             BPAHANNA RIBEIRO SAMPAIO         2023120404    010                                  77001344004ALAMEDA 24                    QI 24 CS 015   ARNO 32                       63981583780                                                                                         
03275528920251225160570180424045007720251201001090301010048700209437933629M000000    05000000102             BPARONALDO MORAIS BUENO          1975100601    010                                  7706204608136                            QD 154 CAS14   JARDIM AURENY III             63992466573                                                                                         
03275528920251225160570410714054787020251201001100301010048700209437933629M000000    04300000102             BPAEDUARDO VIANA DA SILVA        1982041604    010                                  77007142008CHACARA MARANATA              RURAL     01   PLANO DIRETOR NORTE           63984623451                                                                                         
03275528920251225160570760925863119220251201001110301010048700209437933629M000000    05000000102             BPAMAIRON CELIO ASSUNCÃO DE CASTR1975081601    010                                  77001724077Arno 73 Alameda 09            AREA VERDES/N  Plano Diretor Norte           63981155125                                                                                         
03275528920251225160570000238632640820251201001120301010048700209437933629M000000    06500000102             BPAJOSE ADEMAR DA ROCHA SILVA    1960062001    010                                  77500000037                                                                                                                                                                               
03275528920251225160570700281127513620251201001130301010048700209437933629M000000    03600000102             BPAJEFFERSON RODRIGUES DA SILVA  1989071202    010                                  77006450004ALAMEDA 28                    CASA      11   PLANO DIRETOR NORTE           62995278377                                                                                         
03275528920251222350570690716522223020251201001140301060118182102268060004M000000    03500000102             BPAJHON FLAVIO SANTOS PORTELA    1990050503    010                                  77001348004305N ALAMEDA 22               QI 22 CS 017   PLANO DIRETOR NORTE           63991278472                                                                                         
03275528920251222350570690716522223020251201001150214010015182102268060004M000000    03500000102             BPAJHON FLAVIO SANTOS PORTELA    1990050503    010                                  77001348004305N ALAMEDA 22               QI 22 CS 017   PLANO DIRETOR NORTE           63991278472                                                                                         
03275528920251222350570690716522223020251201001160301100039182102268060004M000000    03500000102             BPAJHON FLAVIO SANTOS PORTELA    1990050503    010                                  77001348004305N ALAMEDA 22               QI 22 CS 017   PLANO DIRETOR NORTE           63991278472                                                                                         
03275528920251225160570200436340098720251201001170301010048700209437933629M000000    05200000102             BPAOLIMPIO JOSE FILHO            1973091504    010                                  77001430004ARNO 33 ALAMEDA 22            ACS MARLEN63   PLANO DIRETOR NORTE           6384598580                                                                                          
032755289202512225125               20251201001180301060096707505245542290F000000Z00002400000102             BPALARA BEATRIZ MARTINS PIMENTA D2001042904    010                                  00000000000                                                                           63992622505                                                                                         
032755289202512225125               20251201001190301060061700800904362989F000000F41802000000102             BPAJULLYA MARIELLY DA CUNHA LIMA 2005053104    010                                  00000000000                                                                           63984262642                                                                                         
03275528920251222512570010592198491820251201001200301060118704004854161962F000000    03100000102             BPAEVELYN THUANY FONSECA DE ASSIS1994091904    010                                  77007110077ARNE 81 ALAMEDA 6             QI 02     14   PLANO DIRETOR NORTE           61996669705                                                                                         
03275528920251222512570010592198491820251201002010301100039704004854161962F000000    03100000102             BPAEVELYN THUANY FONSECA DE ASSIS1994091904    010                                  77007110077ARNE 81 ALAMEDA 6             QI 02     14   PLANO DIRETOR NORTE           61996669705                                                                                         
03275528920251222512570760828815699820251201002020301060061700800904362989F000000J00 04500000102             BPAANGELA RODRIGUES AIRES        1979120304    010                                  77006378077ARNE 71 AL 04                 NORTH II B03   PLANO DIRETOR NORTE           63992222686                                                                                         
03275528920251222512570690716522223020251201002030301060096707505245542290M000000Z00003500000102             BPAJHON FLAVIO SANTOS PORTELA    1990050503    010                                  77001348004305N ALAMEDA 22               QI 22 CS 017   PLANO DIRETOR NORTE           63991278472                                                                                         
03275528920251222350570650634894259620251201002040301060118182102268060004F000000    03200000102             BPARAINE ALVES DE OLIVEIRA       1993050704    010                                  77001722081QUADRA 607 NORTE ALAMEDA 13 LO          1    PLANO DIRETOR NORTE                                                                                                               
03275528920251222350570650634894259620251201002050301100039182102268060004F000000    03200000102             BPARAINE ALVES DE OLIVEIRA       1993050704    010                                  77001722081QUADRA 607 NORTE ALAMEDA 13 LO          1    PLANO DIRETOR NORTE                                                                                                               
03275528920251222512570540549530289520251201002060301060061700800904362989F000000K59006600000102             BPAANA PEREIRA DE SOUSA          1959011501    010                                  77001875004603 NORTE ALAMEDA 19          QI 07     21   PLANO DIRETOR NORTE           63992205906                                                                                         
03275528920251222350570080244146698120251201002070301060118182102268060004M000000    05600000102             BPAVALDECI COSTA REIS            1969092404    010                                  77001722077607 NORTE ALAMEDA 12          QI 17     12   PLANO DIRETOR NORTE           63991293595                                                                                         
03275528920251222350570080244146698120251201002080301100039182102268060004M000000    05600000102             BPAVALDECI COSTA REIS            1969092404    010                                  77001722077607 NORTE ALAMEDA 12          QI 17     12   PLANO DIRETOR NORTE           63991293595                                                                                         
03275528920251222350570340625636271920251201002090301060118182102268060004M000000    01700000102             BPAJOAO PEDRO DE ALMEIDA CARVALHO2008011204    010                                  00000000077603 SUL ALAMEDA 05 QI O                 36   PLANO DIRETOR SUL             63985008988                                                                                         
03275528920251222350570340625636271920251201002100301100039182102268060004M000000    01700000102             BPAJOAO PEDRO DE ALMEIDA CARVALHO2008011204    010                                  00000000077603 SUL ALAMEDA 05 QI O                 36   PLANO DIRETOR SUL             63985008988                                                                                         
03275528920251222512570690613508953120251201002110301060061700800904362989M000000R10 04700000102             BPAEVEILSON DOS SANTOS VIEGAS AND1978053004    010                                  77001002081RUA 21                        CASA 02   01   LAGO NORTE                    61331524256                                                                                         
03275528920251222350570000132644100520251201002120301060118182102268060004M000000    02100000102             BPAGABRIEL MOREIRA DA SILVA      2004022204    010                                  77025336077Arso 122 Quadra 4             QI 02     03   Plano Diretor Sul             63999563320                                                                                         
03275528920251222350570000132644100520251201002130301100039182102268060004M000000    02100000102             BPAGABRIEL MOREIRA DA SILVA      2004022204    010                                  77025336077Arso 122 Quadra 4             QI 02     03   Plano Diretor Sul             63999563320                                                                                         
032755289202512225125               20251201002140301060096707505245542290F000000Z00000100000102             BPAHANNA RIBEIRO SAMPAIO         2023120404    010                                  77001344004ALAMEDA 24                    QI 24 CS 015   ARNO 32                       63981583780                                                                                         
03275528920251222350570640463931708520251201002150301060118182102268060004F000000    00400000102             BPAZAYA LAIS ALVES BARROS        2021032501    010                                  77001370004305 NORTE ALAMEDA 31          QI 31 AREA01   PLANO DIRETOR NORTE           63981407644                                                                                         
03275528920251222512570080244146698120251201002160301060096701206030144910M000000Z00005600000102             BPAVALDECI COSTA REIS            1969092404    010                                  77001722077607 NORTE ALAMEDA 12          QI 17     12   PLANO DIRETOR NORTE           63991293595                                                                                         
03275528920251222512570650634894259620251201002170301060096707505245542290F000000Z00003200000102             BPARAINE ALVES DE OLIVEIRA       1993050704    010                                  77001722081QUADRA 607 NORTE ALAMEDA 13 LO          1    PLANO DIRETOR NORTE                                                                                                               
03275528920251222350570500228812985420251201002180301060118182102268060004F000000    06200000102             BPARAIMUNDA DOS REIS DE OLIVEIRA 1962122703    010                                  77006592004ALAMEDA 05 LOTE12                       12   504 NORTE                     63322437906                                                                                         
03275528920251222350570500228812985420251201002190301100039182102268060004F000000    06200000102             BPARAIMUNDA DOS REIS DE OLIVEIRA 1962122703    010                                  77006592004ALAMEDA 05 LOTE12                       12   504 NORTE                     63322437906                                                                                         
03275528920251222512570010592198491820251201002200301060061700800904362989F000000R10403100000102             BPAEVELYN THUANY FONSECA DE ASSIS1994091904    010                                  77007110077ARNE 81 ALAMEDA 6             QI 02     14   PLANO DIRETOR NORTE           61996669705                                                                                         
03275528920251222350570640061723348920251201003010301060118182102268060004M000000    02800000102             BPATHIAGO BARREIRA DOS SANTOS NUN1997032304    010                                  7702059000415                                      41   Arse 24                       63999773462                                                                                         
03275528920251222350570640061723348920251201003020301100039182102268060004M000000    02800000102             BPATHIAGO BARREIRA DOS SANTOS NUN1997032304    010                                  7702059000415                                      41   Arse 24                       63999773462                                                                                         
03275528920251222512570640463931708520251201003030301060096707505245542290F000000Z00000400000102             BPAZAYA LAIS ALVES BARROS        2021032501    010                                  77001370004305 NORTE ALAMEDA 31          QI 31 AREA01   PLANO DIRETOR NORTE           63981407644                                                                                         
03275528920251225160570000995757100620251201003040301010048700209437933629M000000    02700000102             BPATHIAGO DOS SANTOS OLIVEIRA    1998013002    010                                  77024596008QI 22                         AVENIDA LO032  1306 SUL                      63846098366                                                                                         
03275528920251222512570340625636271920251201003050301060061700800904362989M000000R07001700000102             BPAJOAO PEDRO DE ALMEIDA CARVALHO2008011204    010                                  00000000077603 SUL ALAMEDA 05 QI O                 36   PLANO DIRETOR SUL             63985008988                                                                                         
03275528920251222350570520740312047020251201003060301060118182102268060004M000000    01900000102             BPARAFAEL GOMES LIMA             2006011404    010                                  77006583081504 NORTE ALAMEDA 11          M         25   PLANO DIRETOR NORTE           63981091901                                                                                         
03275528920251222350570520740312047020251201003070301100039182102268060004M000000    01900000102             BPARAFAEL GOMES LIMA             2006011404    010                                  77006583081504 NORTE ALAMEDA 11          M         25   PLANO DIRETOR NORTE           63981091901                                                                                         
03275528920251222512570000132644100520251201003080301060096707505245542290M000000Z00002100000102             BPAGABRIEL MOREIRA DA SILVA      2004022204    010                                  77025336077Arso 122 Quadra 4             QI 02     03   Plano Diretor Sul             63999563320                                                                                         
03275528920251222512570500228812985420251201003090301060061700800904362989F000000R53 06200000102             BPARAIMUNDA DOS REIS DE OLIVEIRA 1962122703    010                                  77006592004ALAMEDA 05 LOTE12                       12   504 NORTE                     63322437906                                                                                         
03275528920251222512570640061723348920251201003100301060061700800904362989M000000M54502800000102             BPATHIAGO BARREIRA DOS SANTOS NUN1997032304    010                                  7702059000415                                      41   Arse 24                       63999773462                                                                                         
03275528920251222512570520740312047020251201003110301060096707505245542290M000000Z00001900000102             BPARAFAEL GOMES LIMA             2006011404    010                                  77006583081504 NORTE ALAMEDA 11          M         25   PLANO DIRETOR NORTE           63981091901                                                                                         
032755289202512223505               20251201003120301060118182102268060004M000000    00100000102             BPARENATO DE BASTOS CALDEIRA     2024110104    010                                  00000000000                                                                           6399911411                                                                                          
032755289202512225125               20251201003130301060096707505245542290M000000Z00000100000102             BPARENATO DE BASTOS CALDEIRA     2024110104    010                                  00000000000                                                                           6399911411                                                                                          
03275528920251222512570640061723348920251201003140301060096707505245542290M000000Z00002800000102             BPATHIAGO BARREIRA DOS SANTOS NUN1997032304    010                                  7702059000415                                      41   Arse 24                       63999773462                                                                                         
03275528920251222512570640061723348920251201003150301060096709203292224132M000000N23 02800000102             BPATHIAGO BARREIRA DOS SANTOS NUN1997032304    010                                  7702059000415                                      41   Arse 24                       63999773462                                                                                         
03275528920251222350570200436340098720251201003160301060118700007731587805M000000    05200000102             BPAOLIMPIO JOSE FILHO            1973091504    010                                  77001430004ARNO 33 ALAMEDA 22            ACS MARLEN63   PLANO DIRETOR NORTE           6384598580                                                                                          
03275528920251222350570200436340098720251201003170301100039700007731587805M000000    05200000102             BPAOLIMPIO JOSE FILHO            1973091504    010                                  77001430004ARNO 33 ALAMEDA 22            ACS MARLEN63   PLANO DIRETOR NORTE           6384598580                                                                                          
03275528920251222512570650634894259620251201003180301060096704308569232696F000000Z03 03200000102             BPARAINE ALVES DE OLIVEIRA       1993050704    010                                  77001722081QUADRA 607 NORTE ALAMEDA 13 LO          1    PLANO DIRETOR NORTE                                                                                                               
03275528920251222350570500888302275620251201003190301060118700001505853502F000000    02300000102             BPAEMILLY YASMIN ALMEIDA GOUVEIA 2002080501    010                                  77020598004Alameda 03                              25   210 Sul                       63992383445                                                                                         
03275528920251222350570500888302275620251201003200301100039700001505853502F000000    02300000102             BPAEMILLY YASMIN ALMEIDA GOUVEIA 2002080501    010                                  77020598004Alameda 03                              25   210 Sul                       63992383445                                                                                         
03275528920251222512570200436340098720251201004010301060061704308569232696M000000T10 05200000102             BPAOLIMPIO JOSE FILHO            1973091504    010                                  77001430004ARNO 33 ALAMEDA 22            ACS MARLEN63   PLANO DIRETOR NORTE           6384598580                                                                                          
03275528920251222350570320462932899520251201004020301060118700001505853502M000000    04700000102             BPAREGINALDO JOSE DA SILVA       1978042601    010                                  77002011077Arno 42 Alameda 13            QI 18     40   Plano Diretor Norte           63991295402                                                                                         
03275528920251222350570320462932899520251201004030301100039700001505853502M000000    04700000102             BPAREGINALDO JOSE DA SILVA       1978042601    010                                  77002011077Arno 42 Alameda 13            QI 18     40   Plano Diretor Norte           63991295402                                                                                         
03275528920251222350520088112564000120251201004040301060118700001505853502M000000    02400000102             BPAJOSE HENRIKE DE SOUZA BARROS  2001081201    010                                  77020160077110 SUL ALAMEDA 15                      09   PLANO DIRETOR SUL             6381334609                                                                                          
03275528920251222350520088112564000120251201004050301100039700001505853502M000000    02400000102             BPAJOSE HENRIKE DE SOUZA BARROS  2001081201    010                                  77020160077110 SUL ALAMEDA 15                      09   PLANO DIRETOR SUL             6381334609                                                                                          
03275528920251222512570500888302275620251201004060301060061706705571664417F000000Z00002300000102             BPAEMILLY YASMIN ALMEIDA GOUVEIA 2002080501    010                                  77020598004Alameda 03                              25   210 Sul                       63992383445                                                                                         
03275528920251222350570410387108675020251201004070301060118700001505853502F000000    02900000102             BPARAYANNE PEREIRA DA SILVA      1996062002    010                                  770240760771106SUL ALAMEDA 08                      12   SUL                           63984848484                                                                                         
03275528920251222350570410387108675020251201004080301100039700001505853502F000000    02900000102             BPARAYANNE PEREIRA DA SILVA      1996062002    010                                  770240760771106SUL ALAMEDA 08                      12   SUL                           63984848484                                                                                         
03275528920251222512570320462932899520251201004090301060061706705571664417M000000Z00004700000102             BPAREGINALDO JOSE DA SILVA       1978042601    010                                  77002011077Arno 42 Alameda 13            QI 18     40   Plano Diretor Norte           63991295402                                                                                         
03275528920251222512570460166382542620251201004100301060096709203292224132F000000M79602500000102             BPAROSELI DIAS DA PAIXAO         2000051604    010                                  77001568004ARNO 43, ALAMEDA 03 LT CASA 03QI 05 ACS 22   PLANO DIRETOR NORTE           63992387191                                                                                         
03275528920251222512570410387108675020251201004110301060061706705571664417F000000Z00002900000102             BPARAYANNE PEREIRA DA SILVA      1996062002    010                                  770240760771106SUL ALAMEDA 08                      12   SUL                           63984848484                                                                                         
03275528920251222512520088112564000120251201004120301060061706705571664417M000000Z00002400000102             BPAJOSE HENRIKE DE SOUZA BARROS  2001081201    010                                  77020160077110 SUL ALAMEDA 15                      09   PLANO DIRETOR SUL             6381334609                                                                                          
03275528920251222512570690716522223020251201004130301060061704308569232696M000000Z03 03500000102             BPAJHON FLAVIO SANTOS PORTELA    1990050503    010                                  77001348004305N ALAMEDA 22               QI 22 CS 017   PLANO DIRETOR NORTE           63991278472                                                                                         
03275528920251222512570690716522223020251201004140301100039704308569232696M000000Z03 03500000102             BPAJHON FLAVIO SANTOS PORTELA    1990050503    010                                  77001348004305N ALAMEDA 22               QI 22 CS 017   PLANO DIRETOR NORTE           63991278472                                                                                         
03275528920251222350570240108200712620251201004150301060118700001505853502M000000    02300000102             BPAMIKAEL KENED ARAUJO DA COSTA  2002111901    010                                  77023612077ARSE 102 ALAMEDA 18           CASA 01   49   PLANO DIRETOR SUL             63991004133                                                                                         
03275528920251222350570240108200712620251201004160301100039700001505853502M000000    02300000102             BPAMIKAEL KENED ARAUJO DA COSTA  2002111901    010                                  77023612077ARSE 102 ALAMEDA 18           CASA 01   49   PLANO DIRETOR SUL             63991004133                                                                                         
03275528920251222512570050199564375020251201004170301060096709203292224132M000000N23 04700000102             BPAJEFFERSON RODRIGUES DA SILVA  1978102704    010                                  77021686077ARSE 51 ALAMEDA 10            C1 504 SUL11   PLANO DIRETOR SUL             63985138065                                                                                         
03275528920251225160570180424045007720251201004180301010048700602455923664M000000    05000000102             BPARONALDO MORAIS BUENO          1975100601    010                                  7706204608136                            QD 154 CAS14   JARDIM AURENY III             63992466573                                                                                         
03275528920251222512570000410457360920251201004190301060061704308569232696M000000Z03 01900000102             BPAAUGUSTO FILINTRO PIAGEM DE SOU2006082903    010                                  77066084077ARNE 71 ALAMEDA 04            NORTH II B03   PLANO DIRETOR NORTE           63985179088                                                                                         
03275528920251225160570410714054787020251201004200301010048700602455923664M000000    04300000102             BPAEDUARDO VIANA DA SILVA        1982041604    010                                  77007142008CHACARA MARANATA              RURAL     01   PLANO DIRETOR NORTE           63984623451                                                                                         
03275528920251225160570760925863119220251201005010301010048700602455923664M000000    05000000102             BPAMAIRON CELIO ASSUNCÃO DE CASTR1975081601    010                                  77001724077Arno 73 Alameda 09            AREA VERDES/N  Plano Diretor Norte           63981155125                                                                                         
03275528920251222512570200436340098720251201005020301060061704308569232696M000000Z03 05200000102             BPAOLIMPIO JOSE FILHO            1973091504    010                                  77001430004ARNO 33 ALAMEDA 22            ACS MARLEN63   PLANO DIRETOR NORTE           6384598580                                                                                          
03275528920251225160570000238632640820251201005030301010048700602455923664M000000    06500000102             BPAJOSE ADEMAR DA ROCHA SILVA    1960062001    010                                  77500000037                                                                                                                                                                               
03275528920251225160570000410457360920251201005040301010048700602455923664M000000    01900000102             BPAAUGUSTO FILINTRO PIAGEM DE SOU2006082903    010                                  77066084077ARNE 71 ALAMEDA 04            NORTH II B03   PLANO DIRETOR NORTE           63985179088                                                                                         
03275528920251225160570000995757100620251201005050301010048700602455923664M000000    02700000102             BPATHIAGO DOS SANTOS OLIVEIRA    1998013002    010                                  77024596008QI 22                         AVENIDA LO032  1306 SUL                      63846098366                                                                                         
03275528920251225160570050199564375020251201005060301010048700602455923664M000000    04700000102             BPAJEFFERSON RODRIGUES DA SILVA  1978102704    010                                  77021686077ARSE 51 ALAMEDA 10            C1 504 SUL11   PLANO DIRETOR SUL             63985138065                                                                                         
03275528920251225160570200436340098720251201005070301010048700602455923664M000000    05200000102             BPAOLIMPIO JOSE FILHO            1973091504    010                                  77001430004ARNO 33 ALAMEDA 22            ACS MARLEN63   PLANO DIRETOR NORTE           6384598580                                                                                          
03275528920251222350570780667581471520251201005080301060118700001505853502F000000    02700000102             BPAGEOVANA ABREU MILHOMEM        1997123001    010                                  00000000077S RES PORTO SEGURO BLOCO      AL HM     303  CENTRO                                                                                                                            
03275528920251222350570780667581471520251201005090301100039700001505853502F000000    02700000102             BPAGEOVANA ABREU MILHOMEM        1997123001    010                                  00000000077S RES PORTO SEGURO BLOCO      AL HM     303  CENTRO                                                                                                                            
032755289202512251605               20251201005100301010048700602455923664M000000    03500000102             BPAISRAEL OLIVEIRA ARAUJO        1990091504    010                                  00000000000                                                                           6514625148                                                                                          
03275528920251225160570050858329685520251201005110301010048700602455923664M000000    02900000102             BPAWYGOR CRUZ DA SILVA           1996042303    010                                  77006626004ALAMEDA 06                    QI 07     06   ARNE 63                       63984807803                                                                                         
03275528920251225160570600936744684920251201005120301010048700602455923664F000000    05600000102             BPAADALIA LOPES RODRIGUES        1969071304    010                                  00000000000                                                                           63992502780                                                                                         
03275528920251225160589800416081412520251201005130301010048700602455923664F000000    01600000102             BPADHYOVANNA ALVES PEIXOTO       2008121604    010                                  77022434077712 SUL ALAMEDA 6             QI 07     27   PLANO DIRETOR SUL             63992964638                                                                                         
03275528920251225160570000047637330620251201005140301010048700602455923664F000000    08600000102             BPASILVIA FLORINDO DE SOUSA      1938121101    010                                  77022362077704 Sul Alameda 17            QI 22     22   Plano Diretor Sul             6399215216                                                                                          
03275528920251222512570780667581471520251201005150301060061706705571664417F000000Z00002700000102             BPAGEOVANA ABREU MILHOMEM        1997123001    010                                  00000000077S RES PORTO SEGURO BLOCO      AL HM     303  CENTRO                                                                                                                            
03275528920251222350570010592198491820251201005160301060118700001505853502F000000    03100000102             BPAEVELYN THUANY FONSECA DE ASSIS1994091904    010                                  77007110077ARNE 81 ALAMEDA 6             QI 02     14   PLANO DIRETOR NORTE           61996669705                                                                                         
03275528920251222350570010592198491820251201005170301100039700001505853502F000000    03100000102             BPAEVELYN THUANY FONSECA DE ASSIS1994091904    010                                  77007110077ARNE 81 ALAMEDA 6             QI 02     14   PLANO DIRETOR NORTE           61996669705                                                                                         
03275528920251222512570240108200712620251201005180301060061704308569232696M000000R07402300000102             BPAMIKAEL KENED ARAUJO DA COSTA  2002111901    010                                  77023612077ARSE 102 ALAMEDA 18           CASA 01   49   PLANO DIRETOR SUL             63991004133                                                                                         
03275528920251222350570500028533985620251201005190301060118700001505853502M000000    07500000102             BPAJOSE RODRIGUES DORNELES       1950081804    010                                  77023380004904 Sul Alameda 13                      38   Plano Diretor Sul             6384626557                                                                                          
03275528920251222350570500028533985620251201005200301100039700001505853502M000000    07500000102             BPAJOSE RODRIGUES DORNELES       1950081804    010                                  77023380004904 Sul Alameda 13                      38   Plano Diretor Sul             6384626557                                                                                          
03275528920251222512570500028533985620251201006010301060061706705571664417M000000Z00007500000102             BPAJOSE RODRIGUES DORNELES       1950081804    010                                  77023380004904 Sul Alameda 13                      38   Plano Diretor Sul             6384626557                                                                                          
03275528920251222512570010592198491820251201006020301060061704308569232696F000000R10103100000102             BPAEVELYN THUANY FONSECA DE ASSIS1994091904    010                                  77007110077ARNE 81 ALAMEDA 6             QI 02     14   PLANO DIRETOR NORTE           61996669705                                                                                         
03275528920251222350570300385774677620251201006030301060118700001505853502F000000    01500000102             BPAANA CLARA SOUSA GUEDES        2010021001    010                                  77006738077ARNE 71 ALAMEDA 04            NORTH II B03   PLANO DIRETOR NORTE           63992371077                                                                                         
03275528920251222350570300385774677620251201006040301100039700001505853502F000000    01500000102             BPAANA CLARA SOUSA GUEDES        2010021001    010                                  77006738077ARNE 71 ALAMEDA 04            NORTH II B03   PLANO DIRETOR NORTE           63992371077                                                                                         
03275528920251222512570410387108675020251201006050301060061706705571664417F000000Z00002900000102             BPARAYANNE PEREIRA DA SILVA      1996062002    010                                  770240760771106SUL ALAMEDA 08                      12   SUL                           63984848484                                                                                         
03275528920251222512570780667581471520251201006060301060061706705571664417F000000Z00002700000102             BPAGEOVANA ABREU MILHOMEM        1997123001    010                                  00000000077S RES PORTO SEGURO BLOCO      AL HM     303  CENTRO                                                                                                                            
03275528920251222512570300385774677620251201006070301060096704308569232696F000000J00 01500000102             BPAANA CLARA SOUSA GUEDES        2010021001    010                                  77006738077ARNE 71 ALAMEDA 04            NORTH II B03   PLANO DIRETOR NORTE           63992371077                                                                                         
03275528920251222350570000055934900320251201006080301060118700001505853502F000000    03400000102             BPARAINGLETHY MARTINS DOS SANTOS 1991101204    010                                  77001002081RUA 20                                  S/N  LAGO NORTE                    63992705176                                                                                         
03275528920251222350570000055934900320251201006090301100039700001505853502F000000    03400000102             BPARAINGLETHY MARTINS DOS SANTOS 1991101204    010                                  77001002081RUA 20                                  S/N  LAGO NORTE                    63992705176                                                                                         
03275528920251222350570630171753667120251201006100301060118700001505853502M000000    02100000102             BPAALEANDRO GABRIEL DUARTE DE SOU2004012701    010                                  7706463000423                            ALAMEDA 2312   Arno 33                       94333119176                                                                                         
03275528920251222350570630171753667120251201006110301100039700001505853502M000000    02100000102             BPAALEANDRO GABRIEL DUARTE DE SOU2004012701    010                                  7706463000423                            ALAMEDA 2312   Arno 33                       94333119176                                                                                         
03275528920251222512570000055934900320251201006120301060061706705571664417F000000Z00003400000102             BPARAINGLETHY MARTINS DOS SANTOS 1991101204    010                                  77001002081RUA 20                                  S/N  LAGO NORTE                    63992705176                                                                                         
03275528920251222512570630171753667120251201006130301060096707505245542290M000000Z00002100000102             BPAALEANDRO GABRIEL DUARTE DE SOU2004012701    010                                  7706463000423                            ALAMEDA 2312   Arno 33                       94333119176                                                                                         
03275528920251222350570060595925166220251201006140301060118700001505853502F000000    04100000102             BPASILVANIA PEREIRA DE SOUSA     1984011501    010                                  77001246004ALAMEDA 07                    QI 10     09   303 NORTE                     63992043071                                                                                         
03275528920251222350570060595925166220251201006150301100039700001505853502F000000    04100000102             BPASILVANIA PEREIRA DE SOUSA     1984011501    010                                  77001246004ALAMEDA 07                    QI 10     09   303 NORTE                     63992043071                                                                                         
03275528920251225160570000410457360920251201006160301010048700602455923664M000000    01900000102             BPAAUGUSTO FILINTRO PIAGEM DE SOU2006082903    010                                  77066084077ARNE 71 ALAMEDA 04            NORTH II B03   PLANO DIRETOR NORTE           63985179088                                                                                         
03275528920251222512570300385774677620251201006170301060061704308569232696F000000Z03 01500000102             BPAANA CLARA SOUSA GUEDES        2010021001    010                                  77006738077ARNE 71 ALAMEDA 04            NORTH II B03   PLANO DIRETOR NORTE           63992371077                                                                                         
03275528920251222512570640061723348920251201006180301060096707505245542290M000000Z00002800000102             BPATHIAGO BARREIRA DOS SANTOS NUN1997032304    010                                  7702059000415                                      41   Arse 24                       63999773462                                                                                         
03275528920251222350570240108200712620251201006190301060118705000088724951M000000    02300000102             BPAMIKAEL KENED ARAUJO DA COSTA  2002111901    010                                  77023612077ARSE 102 ALAMEDA 18           CASA 01   49   PLANO DIRETOR SUL             63991004133                                                                                         
03275528920251222350570240108200712620251201006200301100039705000088724951M000000    02300000102             BPAMIKAEL KENED ARAUJO DA COSTA  2002111901    010                                  77023612077ARSE 102 ALAMEDA 18           CASA 01   49   PLANO DIRETOR SUL             63991004133                                                                                         
03275528920251222350570600430324804920251201007010301060118700001505853502F000000    08000000102             BPAVALQUIRIA PINHEIRO MARTINS    1945102104    010                                  77001060077Arno 12 Alameda dos Buritis             550  Plano Diretor Norte           63981012345                                                                                         
03275528920251222350570600430324804920251201007020301100039700001505853502F000000    08000000102             BPAVALQUIRIA PINHEIRO MARTINS    1945102104    010                                  77001060077Arno 12 Alameda dos Buritis             550  Plano Diretor Norte           63981012345                                                                                         
03275528920251222512570060595925166220251201007030301060061700800904362989F000000K52904100000102             BPASILVANIA PEREIRA DE SOUSA     1984011501    010                                  77001246004ALAMEDA 07                    QI 10     09   303 NORTE                     63992043071                                                                                         
03275528920251222350570500028533985620251201007040301060118705000088724951M000000    07500000102             BPAJOSE RODRIGUES DORNELES       1950081804    010                                  77023380004904 Sul Alameda 13                      38   Plano Diretor Sul             6384626557                                                                                          
03275528920251222512570240108200712620251201007050301060061704308569232696M000000Z03 02300000102             BPAMIKAEL KENED ARAUJO DA COSTA  2002111901    010                                  77023612077ARSE 102 ALAMEDA 18           CASA 01   49   PLANO DIRETOR SUL             63991004133                                                                                         
03275528920251222512570500028533985620251201007060301060061706705571664417M000000Z00007500000102             BPAJOSE RODRIGUES DORNELES       1950081804    010                                  77023380004904 Sul Alameda 13                      38   Plano Diretor Sul             6384626557                                                                                          
03275528920251222350570650639463079820251201007070301060118700001505853502F000000    03100000102             BPAMICHELLY PEREIRA DE OLIVEIRA  1994120104    010                                  77015564077ARSO 41 ALAMEDA 2             QI 01     12   PLANO DIRETOR SUL             63984243914                                                                                         
03275528920251222350570650639463079820251201007080301100039700001505853502F000000    03100000102             BPAMICHELLY PEREIRA DE OLIVEIRA  1994120104    010                                  77015564077ARSO 41 ALAMEDA 2             QI 01     12   PLANO DIRETOR SUL             63984243914                                                                                         
03275528920251222350570240108200712620251201007090301060118700000174792403M000000    02300000102             BPAMIKAEL KENED ARAUJO DA COSTA  2002111901    010                                  77023612077ARSE 102 ALAMEDA 18           CASA 01   49   PLANO DIRETOR SUL             63991004133                                                                                         
03275528920251222350570240108200712620251201007100301100039700000174792403M000000    02300000102             BPAMIKAEL KENED ARAUJO DA COSTA  2002111901    010                                  77023612077ARSE 102 ALAMEDA 18           CASA 01   49   PLANO DIRETOR SUL             63991004133                                                                                         
03275528920251222512570650639463079820251201007110301060096700402956088840F000000R10 03100000102             BPAMICHELLY PEREIRA DE OLIVEIRA  1994120104    010                                  77015564077ARSO 41 ALAMEDA 2             QI 01     12   PLANO DIRETOR SUL             63984243914                                                                                         
03275528920251222350589800592397579520251201007120301060118700602413600360F000000    00600000102             BPALUIZA PEREIRA BARBOSA         2019100804    010                                  00000000081Quadra                        305 SUL ALS/N  Plano Diretor Sul             63984525576                                                                                         
03275528920251222350570890977823351020251201007130301060118700000174792403M000000    01800000102             BPADAVID PEREIRA DA SILVA        2007041204    010                                  770244840771206 Sul Alameda 17           LOTIAMENTO03   1206 Sul                      63992469580                                                                                         
03275528920251222350570890977823351020251201007140301100039700000174792403M000000    01800000102             BPADAVID PEREIRA DA SILVA        2007041204    010                                  770244840771206 Sul Alameda 17           LOTIAMENTO03   1206 Sul                      63992469580                                                                                         
032755289202512223505               20251201007150301060118700000174792403M000000    03500000102             BPAISRAEL OLIVEIRA ARAUJO        1990091504    010                                  00000000000                                                                           6514625148                                                                                          
032755289202512223505               20251201007160301100039700000174792403M000000    03500000102             BPAISRAEL OLIVEIRA ARAUJO        1990091504    010                                  00000000000                                                                           6514625148                                                                                          
03275528920251222350570180424045007720251201007170301060118700000174792403M000000    05000000102             BPARONALDO MORAIS BUENO          1975100601    010                                  7706204608136                            QD 154 CAS14   JARDIM AURENY III             63992466573                                                                                         
03275528920251222350570180424045007720251201007180301100039700000174792403M000000    05000000102             BPARONALDO MORAIS BUENO          1975100601    010                                  7706204608136                            QD 154 CAS14   JARDIM AURENY III             63992466573                                                                                         
03275528920251222350570050199564375020251201007190301060118700000174792403M000000    04700000102             BPAJEFFERSON RODRIGUES DA SILVA  1978102704    010                                  77021686077ARSE 51 ALAMEDA 10            C1 504 SUL11   PLANO DIRETOR SUL             63985138065                                                                                         
03275528920251222350570050199564375020251201007200301100039700000174792403M000000    04700000102             BPAJEFFERSON RODRIGUES DA SILVA  1978102704    010                                  77021686077ARSE 51 ALAMEDA 10            C1 504 SUL11   PLANO DIRETOR SUL             63985138065                                                                                         
03275528920251222350570000284850780720251201008010301060118980016297481305M000000    03900000102             BPALUIZINHO PEREIRA DE SOUSA     1986083102    010                                  77650000481                                                                                                                                                                               
03275528920251222350570000284850780720251201008020301100039980016297481305M000000    03900000102             BPALUIZINHO PEREIRA DE SOUSA     1986083102    010                                  77650000481                                                                                                                                                                               
03275528920251222512570520647914127320251201008030301060118702105744606297M000000    04100000102             BPAFRANCISCO BERTOZO DO NASCIMENT1984092004    010                                  77008020481Agua Fria Shalon              ACS MARINES/N  Loteamento Água Fria          63321850996                                                                                         
03275528920251222512570520647914127320251201008040301100039702105744606297M000000    04100000102             BPAFRANCISCO BERTOZO DO NASCIMENT1984092004    010                                  77008020481Agua Fria Shalon              ACS MARINES/N  Loteamento Água Fria          63321850996                                                                                         
03275528920251222350570760925863119220251201008050301060118700000174792403M000000    05000000102             BPAMAIRON CELIO ASSUNCÃO DE CASTR1975081601    010                                  77001724077Arno 73 Alameda 09            AREA VERDES/N  Plano Diretor Norte           63981155125                                                                                         
03275528920251222350570760925863119220251201008060301100039700000174792403M000000    05000000102             BPAMAIRON CELIO ASSUNCÃO DE CASTR1975081601    010                                  77001724077Arno 73 Alameda 09            AREA VERDES/N  Plano Diretor Norte           63981155125                                                                                         
03275528920251222350570600936744684920251201008070301060118700004503674204F000000    05600000102             BPAADALIA LOPES RODRIGUES        1969071304    010                                  00000000000                                                                           63992502780                                                                                         
03275528920251222350570200436340098720251201008080301060118700000174792403M000000    05200000102             BPAOLIMPIO JOSE FILHO            1973091504    010                                  77001430004ARNO 33 ALAMEDA 22            ACS MARLEN63   PLANO DIRETOR NORTE           6384598580                                                                                          
03275528920251222350570200436340098720251201008090301100039700000174792403M000000    05200000102             BPAOLIMPIO JOSE FILHO            1973091504    010                                  77001430004ARNO 33 ALAMEDA 22            ACS MARLEN63   PLANO DIRETOR NORTE           6384598580                                                                                          
03275528920251222350589800416081412520251201008100301060118700004503674204F000000    01600000102             BPADHYOVANNA ALVES PEIXOTO       2008121604    010                                  77022434077712 SUL ALAMEDA 6             QI 07     27   PLANO DIRETOR SUL             63992964638                                                                                         
03275528920251222350570000410457360920251201008110301060118700000174792403M000000    01900000102             BPAAUGUSTO FILINTRO PIAGEM DE SOU2006082903    010                                  77066084077ARNE 71 ALAMEDA 04            NORTH II B03   PLANO DIRETOR NORTE           63985179088                                                                                         
03275528920251222350570000410457360920251201008120301100039700000174792403M000000    01900000102             BPAAUGUSTO FILINTRO PIAGEM DE SOU2006082903    010                                  77066084077ARNE 71 ALAMEDA 04            NORTH II B03   PLANO DIRETOR NORTE           63985179088                                                                                         
03275528920251222512570890977823351020251201008130301060096708604093922785M000000N39001800000102             BPADAVID PEREIRA DA SILVA        2007041204    010                                  770244840771206 Sul Alameda 17           LOTIAMENTO03   1206 Sul                      63992469580                                                                                         
03275528920251222350589800588957134820251201008140301060118980016297481305F000000    00700000102             BPAPAOLA MENDES MORAES SILVA     2018090604    010                                  77001744077605 N AL 07                   QI 07 CASA07   Plano Diretor Norte           63991230343                                                                                         
03275528920251222350570000047637330620251201008150301060118700004503674204F000000    08600000102             BPASILVIA FLORINDO DE SOUSA      1938121101    010                                  77022362077704 Sul Alameda 17            QI 22     22   Plano Diretor Sul             6399215216                                                                                          
03275528920251222350570410714054787020251201008160301060118700000174792403M000000    04300000102             BPAEDUARDO VIANA DA SILVA        1982041604    010                                  77007142008CHACARA MARANATA              RURAL     01   PLANO DIRETOR NORTE           63984623451                                                                                         
03275528920251222350570410714054787020251201008170301100039700000174792403M000000    04300000102             BPAEDUARDO VIANA DA SILVA        1982041604    010                                  77007142008CHACARA MARANATA              RURAL     01   PLANO DIRETOR NORTE           63984623451                                                                                         
032755289202512225125               20251201008180301060118702105744606297M000000    03300000102             BPAVALDINEI CASTRO               1992013104    010                                  00000000000                                                                           93993815263                                                                                         
032755289202512225125               20251201008190301100039702105744606297M000000    03300000102             BPAVALDINEI CASTRO               1992013104    010                                  00000000000                                                                           93993815263                                                                                         
03275528920251222350570000238632640820251201008200301060118700000174792403M000000    06500000102             BPAJOSE ADEMAR DA ROCHA SILVA    1960062001    010                                  77500000037                                                                                                                                                                               
03275528920251222350570000238632640820251201009010301100039700000174792403M000000    06500000102             BPAJOSE ADEMAR DA ROCHA SILVA    1960062001    010                                  77500000037                                                                                                                                                                               
03275528920251222350589800451855266220251201009020301060118700602413600360F000000    01500000102             BPAGABRIELA SILVA                2010090802    010                                  77001727004607 NORTE QI 25               ALAMEDA 1811   AURENY III                    6384633519                                                                                          
03275528920251222350589800451855266220251201009030301100039700602413600360F000000    01500000102             BPAGABRIELA SILVA                2010090802    010                                  77001727004607 NORTE QI 25               ALAMEDA 1811   AURENY III                    6384633519                                                                                          
03275528920251222350570000995757100620251201009040301060118700000174792403M000000    02700000102             BPATHIAGO DOS SANTOS OLIVEIRA    1998013002    010                                  77024596008QI 22                         AVENIDA LO032  1306 SUL                      63846098366                                                                                         
03275528920251222350570000995757100620251201009050301100039700000174792403M000000    02700000102             BPATHIAGO DOS SANTOS OLIVEIRA    1998013002    010                                  77024596008QI 22                         AVENIDA LO032  1306 SUL                      63846098366                                                                                         
03275528920251222512570520647914127320251201009060301060096703400410822200M000000M54504100000102             BPAFRANCISCO BERTOZO DO NASCIMENT1984092004    010                                  77008020481Agua Fria Shalon              ACS MARINES/N  Loteamento Água Fria          63321850996                                                                                         
03275528920251222512589800588957134820251201009070301060096708604093922785F000000Z00000700000102             BPAPAOLA MENDES MORAES SILVA     2018090604    010                                  77001744077605 N AL 07                   QI 07 CASA07   Plano Diretor Norte           63991230343                                                                                         
032755289202512225125               20251201009080301060096700802912502583M000000Z00003300000102             BPAVALDINEI CASTRO               1992013104    010                                  00000000000                                                                           93993815263                                                                                         
03275528920251222512589800592397579520251201009090301060096708202107243040F000000Z03 00600000102             BPALUIZA PEREIRA BARBOSA         2019100804    010                                  00000000081Quadra                        305 SUL ALS/N  Plano Diretor Sul             63984525576                                                                                         
03275528920251222350570050858329685520251201009100301060118700000174792403M000000    02900000102             BPAWYGOR CRUZ DA SILVA           1996042303    010                                  77006626004ALAMEDA 06                    QI 07     06   ARNE 63                       63984807803                                                                                         
03275528920251222350570050858329685520251201009110301100039700000174792403M000000    02900000102             BPAWYGOR CRUZ DA SILVA           1996042303    010                                  77006626004ALAMEDA 06                    QI 07     06   ARNE 63                       63984807803                                                                                         
03275528920251222350570410517941237020251201009120301060118980016297481305M000000    05200000102             BPAJOAO CLERTON PINHEIRO DA COSTA1973112801    010                                  77006880077203 Norte Alameda 2                     02   Plano Diretor Norte           63984840608                                                                                         
03275528920251222350570410517941237020251201009130301100039980016297481305M000000    05200000102             BPAJOAO CLERTON PINHEIRO DA COSTA1973112801    010                                  77006880077203 Norte Alameda 2                     02   Plano Diretor Norte           63984840608                                                                                         
03275528920251222512589800451855266220251201009140301060096700402956088840F000000J06901500000102             BPAGABRIELA SILVA                2010090802    010                                  77001727004607 NORTE QI 25               ALAMEDA 1811   AURENY III                    6384633519                                                                                          
03275528920251222512570000284850780720251201009150301060096703400410822200M000000R11 03900000102             BPALUIZINHO PEREIRA DE SOUSA     1986083102    010                                  77650000481                                                                                                                                                                               
032755289202512223505               20251201009160301060118980016297481305M000000    00100000102             BPAANDRÉ VALENTIN RODRIGUES DE AS2023122004    010                                  00000000000                                                                           63992064754                                                                                         
03275528920251222350570680573362622020251201009170301060118700602413600360M000000    04600000102             BPAFRANCISCO DE SOUSA            1979103104    010                                  65600970077OTR CENTRO DO DIAMANTE                  S/N  ÁREA RURAL DE PALMAS          63984829182                                                                                         
03275528920251222350570680573362622020251201009180301100039700602413600360M000000    04600000102             BPAFRANCISCO DE SOUSA            1979103104    010                                  65600970077OTR CENTRO DO DIAMANTE                  S/N  ÁREA RURAL DE PALMAS          63984829182                                                                                         
03275528920251222512570810151640433420251201009190301060118702105744606297F000000    01700000102             BPALYANDRA ALVES MARQUES         2008111404    010                                  77001828077503 NORTE ALAMEDA 5           QI 02     11   PLANO DIRETOR NORTE           63984197373                                                                                         
03275528920251222512570810151640433420251201009200301100039702105744606297F000000    01700000102             BPALYANDRA ALVES MARQUES         2008111404    010                                  77001828077503 NORTE ALAMEDA 5           QI 02     11   PLANO DIRETOR NORTE           63984197373                                                                                         
032755289202512225125               20251201010010301060096700402956088840M000000L03800100000102             BPAANDRÉ VALENTIN RODRIGUES DE AS2023122004    010                                  00000000000                                                                           63992064754                                                                                         
03275528920251222350570500846512585120251201010020301060118980016297481305M000000    05200000102             BPAHUMBERTO BRITO DA SILVA       1973070601    010                                  77249899472MARIA PASSA NA FRENTE         TO 020 KM S/N  TAQUARUSSU GRANDE             6384592801                                                                                          
03275528920251222350570500846512585120251201010030301100039980016297481305M000000    05200000102             BPAHUMBERTO BRITO DA SILVA       1973070601    010                                  77249899472MARIA PASSA NA FRENTE         TO 020 KM S/N  TAQUARUSSU GRANDE             6384592801                                                                                          
03275528920251222512570780063469561920251201010040301060118702105744606297M000000    05400000102             BPAJOAO CARLOS AIRES DA SILVA    1971062302    010                                  77006738077ARNE 71 ALAMEDA 4             NORTH I BL402  PLANO DIRETOR NORTE           63984171719                                                                                         
03275528920251222512570780063469561920251201010050301100039702105744606297M000000    05400000102             BPAJOAO CARLOS AIRES DA SILVA    1971062302    010                                  77006738077ARNE 71 ALAMEDA 4             NORTH I BL402  PLANO DIRETOR NORTE           63984171719                                                                                         
03275528920251222512570000047637330620251201010060301060096709203292224132F000000S02208600000102             BPASILVIA FLORINDO DE SOUSA      1938121101    010                                  77022362077704 Sul Alameda 17            QI 22     22   Plano Diretor Sul             6399215216                                                                                          
03275528920251222350570120300918851020251201010070301060118980016297481305M000000    04500000102             BPAEMERSON JORGE GONCALVES DA SIL1980060203    010                                  77021688077507 SUL ALAMEDA 06            QI 22     15   PLANO DIRETOR SUL             63321417006                                                                                         
03275528920251222350570120300918851020251201010080301100039980016297481305M000000    04500000102             BPAEMERSON JORGE GONCALVES DA SIL1980060203    010                                  77021688077507 SUL ALAMEDA 06            QI 22     15   PLANO DIRETOR SUL             63321417006                                                                                         
03275528920251222512570690410435033320251201010090301060118702105744606297F000000    03400000102             BPAMARCELA SOUZA COELHO          1991053103    010                                  77023526004ALAMEDA 05                              S/N  PLANO DIRETOR SUL             63991002148                                                                                         
03275528920251222512570690410435033320251201010100301100039702105744606297F000000    03400000102             BPAMARCELA SOUZA COELHO          1991053103    010                                  77023526004ALAMEDA 05                              S/N  PLANO DIRETOR SUL             63991002148                                                                                         
03275528920251222350570500128143495220251201010110301060118980016297481305F000000    00300000102             BPAANA LUIZA LISBOA BARROS       2021123101    010                                  77001885077ARNO 71 ALAMEDA 5             MUDOU     24   PLANO DIRETOR NORTE           63985059878                                                                                         
03275528920251222512589800416081412520251201010120301060096709203292224132F000000R10401600000102             BPADHYOVANNA ALVES PEIXOTO       2008121604    010                                  77022434077712 SUL ALAMEDA 6             QI 07     27   PLANO DIRETOR SUL             63992964638                                                                                         
03275528920251222512570600936744684920251201010130301060096709203292224132F000000R10405600000102             BPAADALIA LOPES RODRIGUES        1969071304    010                                  00000000000                                                                           63992502780                                                                                         
03275528920251222350570600084431014320251201010140301060118980016297481305F000000    04300000102             BPASILLENE PEREIRA DE SOUSA      1982071204    010                                  77020086004ALAMEDA 20                    CASA 01   26   106 SUL                       63999454071                                                                                         
03275528920251222350570600084431014320251201010150301100039980016297481305F000000    04300000102             BPASILLENE PEREIRA DE SOUSA      1982071204    010                                  77020086004ALAMEDA 20                    CASA 01   26   106 SUL                       63999454071                                                                                         
03275528920251222512570010092328701220251201010160301060118702105744606297M000000    04800000102             BPAADAILSON CAVALCANTE DOS SANTOS1977012504    010                                  77270000077303 NORTE                               07   CENTRO                        6392158021                                                                                          
03275528920251222512570010092328701220251201010170301100039702105744606297M000000    04800000102             BPAADAILSON CAVALCANTE DOS SANTOS1977012504    010                                  77270000077303 NORTE                               07   CENTRO                        6392158021                                                                                          
03275528920251222512570690410435033320251201010180301060096700402956088840F000000R51 03400000102             BPAMARCELA SOUZA COELHO          1991053103    010                                  77023526004ALAMEDA 05                              S/N  PLANO DIRETOR SUL             63991002148                                                                                         
03275528920251222512570780063469561920251201010190301060096708604093922785M000000M79605400000102             BPAJOAO CARLOS AIRES DA SILVA    1971062302    010                                  77006738077ARNE 71 ALAMEDA 4             NORTH I BL402  PLANO DIRETOR NORTE           63984171719                                                                                         
03275528920251222350570670254158881720251201010200301060118980016297481305F000000    05400000102             BPALIRACI PEREIRA BRITO VOGADO   1971042003    010                                  77001744077605 NORTE ALAMEDA 7           QI 09     11   PLANO DIRETOR NORTE           63999871647                                                                                         
03275528920251222350570670254158881720251201011010301100039980016297481305F000000    05400000102             BPALIRACI PEREIRA BRITO VOGADO   1971042003    010                                  77001744077605 NORTE ALAMEDA 7           QI 09     11   PLANO DIRETOR NORTE           63999871647                                                                                         
03275528920251222512570340821409421120251201011020301060118702105744606297F000000    03000000102             BPAANA BEATRIZ MORAIS DE OLIVEIRA1995101901    010                                  77006388056ÁGUA BOA RUA 02               ACS GUSTAVS/N  ZONA RURAL                    63991376909                                                                                         
03275528920251222512570340821409421120251201011030301100039702105744606297F000000    03000000102             BPAANA BEATRIZ MORAIS DE OLIVEIRA1995101901    010                                  77006388056ÁGUA BOA RUA 02               ACS GUSTAVS/N  ZONA RURAL                    63991376909                                                                                         
03275528920251222512570680573362622020251201011040301060096703400410822200M000000J03 04600000102             BPAFRANCISCO DE SOUSA            1979103104    010                                  65600970077OTR CENTRO DO DIAMANTE                  S/N  ÁREA RURAL DE PALMAS          63984829182                                                                                         
03275528920251222512570600084431014320251201011050301060096700402956088840F000000H66904300000102             BPASILLENE PEREIRA DE SOUSA      1982071204    010                                  77020086004ALAMEDA 20                    CASA 01   26   106 SUL                       63999454071                                                                                         
03275528920251222512570680327958772320251201011060301060096702105744606297F000000N39003200000102             BPAMARCIA DA SILVA LIMA          1993042104    010                                  77270000077T 24 Conj 06 Lt 17                      01   Plano Diretor Sul             63992319925                                                                                         
03275528920251222512570500128143495220251201011070301060096708604093922785F000000Z00100300000102             BPAANA LUIZA LISBOA BARROS       2021123101    010                                  77001885077ARNO 71 ALAMEDA 5             MUDOU     24   PLANO DIRETOR NORTE           63985059878                                                                                         
03275528920251222512570180424045007720251201011080301060096709203292224132M000000Z00005000000102             BPARONALDO MORAIS BUENO          1975100601    010                                  7706204608136                            QD 154 CAS14   JARDIM AURENY III             63992466573                                                                                         
03275528920251222512570340821409421120251201011090301060096703400410822200F000000M54503000000102             BPAANA BEATRIZ MORAIS DE OLIVEIRA1995101901    010                                  77006388056ÁGUA BOA RUA 02               ACS GUSTAVS/N  ZONA RURAL                    63991376909                                                                                         
03275528920251222512570810151640433420251201011100301060096708202107243040F000000Z03 01700000102             BPALYANDRA ALVES MARQUES         2008111404    010                                  77001828077503 NORTE ALAMEDA 5           QI 02     11   PLANO DIRETOR NORTE           63984197373                                                                                         
03275528920251222512570500846512585120251201011110301060096708202107243040M000000Z03 05200000102             BPAHUMBERTO BRITO DA SILVA       1973070601    010                                  77249899472MARIA PASSA NA FRENTE         TO 020 KM S/N  TAQUARUSSU GRANDE             6384592801                                                                                          
03275528920251222512570120300918851020251201011120301060096703400410822200M000000J18004500000102             BPAEMERSON JORGE GONCALVES DA SIL1980060203    010                                  77021688077507 SUL ALAMEDA 06            QI 22     15   PLANO DIRETOR SUL             63321417006                                                                                         
03275528920251222350570640515305898020251201011130301060118700602413600360M000000    01700000102             BPAPEDRO LUIZ JARDIM FERREIRA    2008012904    010                                  77020588077210 Sul Alameda 13            CS 01     12   Plano Diretor Sul             6384628603                                                                                          
03275528920251222350570640515305898020251201011140301100039700602413600360M000000    01700000102             BPAPEDRO LUIZ JARDIM FERREIRA    2008012904    010                                  77020588077210 Sul Alameda 13            CS 01     12   Plano Diretor Sul             6384628603                                                                                          
03275528920251222512570460712006052120251201011150301060118702105744606297M000000    00200000102             BPARAVI DE ANDRADE PARENTE       2023032704    010                                  00000000485CONDOMINIO                              S/N  QUINTO DOS JATOBAS            63992060986                                                                                         
03275528920251222512570240108200712620251201011160301060096709203292224132M000000Z00002300000102             BPAMIKAEL KENED ARAUJO DA COSTA  2002111901    010                                  77023612077ARSE 102 ALAMEDA 18           CASA 01   49   PLANO DIRETOR SUL             63991004133                                                                                         
03275528920251222350570410024816018020251201011170301060118700602413600360F000000    02800000102             BPAROZANGELA BEATRIZ GUIMARAES   1996122204    010                                  77001735077ARNO 73 ALAMEDA 07            QI 06     10   PLANO DIRETOR NORTE           63992562855                                                                                         
03275528920251222350570410024816018020251201011180301100039700602413600360F000000    02800000102             BPAROZANGELA BEATRIZ GUIMARAES   1996122204    010                                  77001735077ARNO 73 ALAMEDA 07            QI 06     10   PLANO DIRETOR NORTE           63992562855                                                                                         
03275528920251222512570960565941637620251201011190301060118702105744606297F000000    02800000102             BPAJOYCE RODRIGUES DOS REIS      1997063001    010                                  77001715077Arno 73 Alameda 10            QI 12     06   Plano Diretor Norte           63992118621                                                                                         
03275528920251222512570960565941637620251201011200301100039702105744606297F000000    02800000102             BPAJOYCE RODRIGUES DOS REIS      1997063001    010                                  77001715077Arno 73 Alameda 10            QI 12     06   Plano Diretor Norte           63992118621                                                                                         
03275528920251222512570050199564375020251201012010301060096709203292224132M000000N23 04700000102             BPAJEFFERSON RODRIGUES DA SILVA  1978102704    010                                  77021686077ARSE 51 ALAMEDA 10            C1 504 SUL11   PLANO DIRETOR SUL             63985138065                                                                                         
032755289202512225125               20251201012020301060096700802912502583M000000Z00003300000102             BPAVALDINEI CASTRO               1992013104    010                                  00000000000                                                                           93993815263                                                                                         
03275528920251222512570460712006052120251201012030301060096700802912502583M000000Z00000200000102             BPARAVI DE ANDRADE PARENTE       2023032704    010                                  00000000485CONDOMINIO                              S/N  QUINTO DOS JATOBAS            63992060986                                                                                         
03275528920251222350570360601903263220251201012040301060118980016297481305F000000    04800000102             BPAMARINALVA DE MORAIS BARROS    1977060204    010                                  77001608004409 NORTE ALAMEDA 5           QI 21     19   PLANO DIRETOR NORTE           63984559630                                                                                         
03275528920251222350570360601903263220251201012050301100039980016297481305F000000    04800000102             BPAMARINALVA DE MORAIS BARROS    1977060204    010                                  77001608004409 NORTE ALAMEDA 5           QI 21     19   PLANO DIRETOR NORTE           63984559630                                                                                         
03275528920251222350570620408791446320251201012060301060118700602413600360F000000    02100000102             BPAGESIELY OLIVEIRA DOS ANJOS    2004021004    010                                  770156230041                             QI 15     09   405 Sul                       94991850823                                                                                         
03275528920251222350570620408791446320251201012070301100039700602413600360F000000    02100000102             BPAGESIELY OLIVEIRA DOS ANJOS    2004021004    010                                  770156230041                             QI 15     09   405 Sul                       94991850823                                                                                         
03275528920251222512570010092328701220251201012080301060096708202107243040M000000Z03 04800000102             BPAADAILSON CAVALCANTE DOS SANTOS1977012504    010                                  77270000077303 NORTE                               07   CENTRO                        6392158021                                                                                          
03275528920251222512570640515305898020251201012090301060096708604093922785M000000M79601700000102             BPAPEDRO LUIZ JARDIM FERREIRA    2008012904    010                                  77020588077210 Sul Alameda 13            CS 01     12   Plano Diretor Sul             6384628603                                                                                          
03275528920251222512570580845743493220251201012100301060118702105744606297F000000    04500000102             BPAJESSINA FEITOSA MOREIRA       1980050104    010                                  77240700485PORTO REAL BLOCO 01           BLOCO 01  113  ARSE 131                      63991097927                                                                                         
03275528920251222512570580845743493220251201012110301100039702105744606297F000000    04500000102             BPAJESSINA FEITOSA MOREIRA       1980050104    010                                  77240700485PORTO REAL BLOCO 01           BLOCO 01  113  ARSE 131                      63991097927                                                                                         
03275528920251222512570410024816018020251201012120301060096703400410822200F000000R05 02800000102             BPAROZANGELA BEATRIZ GUIMARAES   1996122204    010                                  77001735077ARNO 73 ALAMEDA 07            QI 06     10   PLANO DIRETOR NORTE           63992562855                                                                                         
032755289202512223505               20251201012130301060118980016297481305M000000    02900000102             BPAMICHAEL JORDYSON MINGUENS SANT1996041702    010                                  00000000000                                                                           9884470377                                                                                          
032755289202512223505               20251201012140301100039980016297481305M000000    02900000102             BPAMICHAEL JORDYSON MINGUENS SANT1996041702    010                                  00000000000                                                                           9884470377                                                                                          
032755289202512225125               20251201012150301060096709203292224132M000000S22303500000102             BPAISRAEL OLIVEIRA ARAUJO        1990091504    010                                  00000000000                                                                           6514625148                                                                                          
03275528920251222512570360601903263220251201012160301060096708604093922785F000000R51 04800000102             BPAMARINALVA DE MORAIS BARROS    1977060204    010                                  77001608004409 NORTE ALAMEDA 5           QI 21     19   PLANO DIRETOR NORTE           63984559630                                                                                         
032755289202512225125               20251201012170301060118702105744606297M000000    01900000102             BPAALEXANDRE PIRES DA SILVA      2006040504    010                                  00000000000                                                                           63992567203                                                                                         
032755289202512225125               20251201012180301100039702105744606297M000000    01900000102             BPAALEXANDRE PIRES DA SILVA      2006040504    010                                  00000000000                                                                           63992567203                                                                                         
03275528920251222512570960565941637620251201012190301060096703400410822200F000000N93802800000102             BPAJOYCE RODRIGUES DOS REIS      1997063001    010                                  77001715077Arno 73 Alameda 10            QI 12     06   Plano Diretor Norte           63992118621                                                                                         
03275528920251222512570000995757100620251201012200301060096709203292224132M000000S92102700000102             BPATHIAGO DOS SANTOS OLIVEIRA    1998013002    010                                  77024596008QI 22                         AVENIDA LO032  1306 SUL                      63846098366                                                                                         
03275528920251222512570670254158881720251201013010301060096708202107243040F000000Z03 05400000102             BPALIRACI PEREIRA BRITO VOGADO   1971042003    010                                  77001744077605 NORTE ALAMEDA 7           QI 09     11   PLANO DIRETOR NORTE           63999871647                                                                                         
032755289202512225125               20251201013020301060096700402956088840M000000R11 01900000102             BPAALEXANDRE PIRES DA SILVA      2006040504    010                                  00000000000                                                                           63992567203                                                                                         
032755289202512223505               20251201013030301060118980016297481305M000000    04900000102             BPAJAMES FERREIRA DE BRITO       1976100201    010                                  00000000000                                                                           63981021221                                                                                         
032755289202512223505               20251201013040214010015980016297481305M000000    04900000102             BPAJAMES FERREIRA DE BRITO       1976100201    010                                  00000000000                                                                           63981021221                                                                                         
032755289202512223505               20251201013050301100039980016297481305M000000    04900000102             BPAJAMES FERREIRA DE BRITO       1976100201    010                                  00000000000                                                                           63981021221                                                                                         
03275528920251222350570180029073227720251201013060301060118700602413600360M000000    05600000102             BPANEIRIBERTO ALCANTARA CESARIO  1969051504    010                                  00000000077603 Sul AL 07 Casa 20                   S/N  Plano Diretor Sul             63981046318                                                                                         
03275528920251222350570180029073227720251201013070301100039700602413600360M000000    05600000102             BPANEIRIBERTO ALCANTARA CESARIO  1969051504    010                                  00000000077603 Sul AL 07 Casa 20                   S/N  Plano Diretor Sul             63981046318                                                                                         
03275528920251222512570000271244650420251201013080301060118702105744606297F000000    02300000102             BPARAFAELA CARDOZO ARAUJO        2002062403    010                                  775000000771001 Sul Avenida                        S/N  Centro                        63929292921                                                                                         
03275528920251222512570000271244650420251201013090301100039702105744606297F000000    02300000102             BPARAFAELA CARDOZO ARAUJO        2002062403    010                                  775000000771001 Sul Avenida                        S/N  Centro                        63929292921                                                                                         
03275528920251222512570640764690538020251201013100301060118702105744606297M000000    01800000102             BPADANIEL DO NASCIMENTO ARAUJO   2007080604    010                                  77024596008AVENIDA LO 31                 ARSE 132  027  1306 SUL                      6332185415                                                                                          
03275528920251222512570640764690538020251201013110301100039702105744606297M000000    01800000102             BPADANIEL DO NASCIMENTO ARAUJO   2007080604    010                                  77024596008AVENIDA LO 31                 ARSE 132  027  1306 SUL                      6332185415                                                                                          
03275528920251222512570050812541435520251201013120301060118702105744606297F000000    04200000102             BPACARLA FERNANDA VASCONCELOS LOP1983112801    010                                  77006322004Alameda 3                     212 NORTE 05   Plano Diretor Norte           63992938892                                                                                         
03275528920251222512570050812541435520251201013130301100039702105744606297F000000    04200000102             BPACARLA FERNANDA VASCONCELOS LOP1983112801    010                                  77006322004Alameda 3                     212 NORTE 05   Plano Diretor Norte           63992938892                                                                                         
03275528920251222350570360702405023720251201013140301060118980016297481305M000000    02600000102             BPAEVERSON VINICIUS FEITOSA DE SO1999031204    010                                  77062220008Anapolis                      QD 39     11   Jardim Aeroporto              6384915493                                                                                          
03275528920251222350570360702405023720251201013150301100039980016297481305M000000    02600000102             BPAEVERSON VINICIUS FEITOSA DE SO1999031204    010                                  77062220008Anapolis                      QD 39     11   Jardim Aeroporto              6384915493                                                                                          
03275528920251222350570460717921572620251201013160301060118700602413600360M000000    02700000102             BPAROBSON DOUGLAS SILVA DE ARAUJO1998030503    010                                  77063170077T 21 Rua                      CONJUNTO 402   Jardim Taquari (Taquaralto)   99991342130                                                                                         
03275528920251222350570460717921572620251201013170301100039700602413600360M000000    02700000102             BPAROBSON DOUGLAS SILVA DE ARAUJO1998030503    010                                  77063170077T 21 Rua                      CONJUNTO 402   Jardim Taquari (Taquaralto)   99991342130                                                                                         
03275528920251222512570000271244650420251201013180301060096708604093922785F000000R50902300000102             BPARAFAELA CARDOZO ARAUJO        2002062403    010                                  775000000771001 Sul Avenida                        S/N  Centro                        63929292921                                                                                         
03275528920251222350570230416512541320251201013190301060118980016297481305M000000    02000000102             BPACARLOS DANIEL DE SOUZA CASTLHA2005022304    010                                  77064638081P 6                           QD 25     19   Setor Sul (Taquaralto)        61999140773                                                                                         
03275528920251222350570230416512541320251201013200301100039980016297481305M000000    02000000102             BPACARLOS DANIEL DE SOUZA CASTLHA2005022304    010                                  77064638081P 6                           QD 25     19   Setor Sul (Taquaralto)        61999140773                                                                                         
03275528920251222512570050812541435520251201014010301060096700402956088840F000000R07404200000102             BPACARLA FERNANDA VASCONCELOS LOP1983112801    010                                  77006322004Alameda 3                     212 NORTE 05   Plano Diretor Norte           63992938892                                                                                         
03275528920251222512570040891229105020251201014020301060118702105744606297M000000    04500000102             BPAGILBERTO TAVARES DE AZEVEDO   1980042704    010                                  77001308004ALAMEDA CIRCULAR              QI 22 CS 002   ARNO 32                       63984627157                                                                                         
